{
  "contractName": "AnchorEthFactory",
  "abi": [
    {
      "anonymous": false,
      "inputs": [
        {
          "indexed": false,
          "internalType": "address",
          "name": "account",
          "type": "address"
        },
        {
          "indexed": false,
          "internalType": "address",
          "name": "sender",
          "type": "address"
        }
      ],
      "name": "ContractDeployed",
      "type": "event"
    },
    {
      "anonymous": false,
      "inputs": [
        {
          "indexed": true,
          "internalType": "address",
          "name": "previousOwner",
          "type": "address"
        },
        {
          "indexed": true,
          "internalType": "address",
          "name": "newOwner",
          "type": "address"
        }
      ],
      "name": "OwnershipTransferred",
      "type": "event"
    },
    {
      "inputs": [
        {
          "internalType": "address",
          "name": "",
          "type": "address"
        }
      ],
      "name": "ContractMap",
      "outputs": [
        {
          "internalType": "address",
          "name": "",
          "type": "address"
        }
      ],
      "stateMutability": "view",
      "type": "function",
      "constant": true
    },
    {
      "inputs": [],
      "name": "anchorust",
      "outputs": [
        {
          "internalType": "contract IShuttleAsset",
          "name": "",
          "type": "address"
        }
      ],
      "stateMutability": "view",
      "type": "function",
      "constant": true
    },
    {
      "inputs": [],
      "name": "owner",
      "outputs": [
        {
          "internalType": "address",
          "name": "",
          "type": "address"
        }
      ],
      "stateMutability": "view",
      "type": "function",
      "constant": true
    },
    {
      "inputs": [],
      "name": "renounceOwnership",
      "outputs": [],
      "stateMutability": "nonpayable",
      "type": "function"
    },
    {
      "inputs": [],
      "name": "terrausd",
      "outputs": [
        {
          "internalType": "contract IShuttleAsset",
          "name": "",
          "type": "address"
        }
      ],
      "stateMutability": "view",
      "type": "function",
      "constant": true
    },
    {
      "inputs": [
        {
          "internalType": "address",
          "name": "newOwner",
          "type": "address"
        }
      ],
      "name": "transferOwnership",
      "outputs": [],
      "stateMutability": "nonpayable",
      "type": "function"
    },
    {
      "inputs": [
        {
          "internalType": "address",
          "name": "_terrausd",
          "type": "address"
        },
        {
          "internalType": "address",
          "name": "_anchorust",
          "type": "address"
        }
      ],
      "name": "initialize",
      "outputs": [],
      "stateMutability": "nonpayable",
      "type": "function"
    },
    {
      "inputs": [
        {
          "internalType": "address",
          "name": "newContract",
          "type": "address"
        },
        {
          "internalType": "address[]",
          "name": "contracts",
          "type": "address[]"
        }
      ],
      "name": "migrate",
      "outputs": [],
      "stateMutability": "nonpayable",
      "type": "function"
    },
    {
      "inputs": [
        {
          "internalType": "contract IShuttleAsset",
          "name": "_terrausd",
          "type": "address"
        }
      ],
      "name": "setUSTAddress",
      "outputs": [],
      "stateMutability": "nonpayable",
      "type": "function"
    },
    {
      "inputs": [
        {
          "internalType": "contract IShuttleAsset",
          "name": "_anchorust",
          "type": "address"
        }
      ],
      "name": "setaUSTAddress",
      "outputs": [],
      "stateMutability": "nonpayable",
      "type": "function"
    },
    {
      "inputs": [
        {
          "internalType": "address",
          "name": "_sender",
          "type": "address"
        }
      ],
      "name": "getContractAddress",
      "outputs": [
        {
          "internalType": "address",
          "name": "",
          "type": "address"
        }
      ],
      "stateMutability": "view",
      "type": "function",
      "constant": true
    },
    {
      "inputs": [
        {
          "internalType": "address",
          "name": "_walletAddress",
          "type": "address"
        }
      ],
      "name": "deployContract",
      "outputs": [],
      "stateMutability": "nonpayable",
      "type": "function"
    },
    {
      "inputs": [],
      "name": "reportFailure",
      "outputs": [],
      "stateMutability": "nonpayable",
      "type": "function"
    }
  ],
  "bytecode": "0x608060405234801561001057600080fd5b5060006100216100c460201b60201c565b9050806000806101000a81548173ffffffffffffffffffffffffffffffffffffffff021916908373ffffffffffffffffffffffffffffffffffffffff1602179055508073ffffffffffffffffffffffffffffffffffffffff16600073ffffffffffffffffffffffffffffffffffffffff167f8be0079c531659141344cd1fd0a4f28419497f9722a3daafe3b4186f6b6457e060405160405180910390a3506100cc565b600033905090565b6153f0806100db6000396000f3fe608060405234801561001057600080fd5b50600436106100cf5760003560e01c806388e8c2f91161008c578063dc03a99211610066578063dc03a992146103ac578063e13ed54b146103b6578063f17fd55514610424578063f2fde38b14610468576100cf565b806388e8c2f9146102f05780638da5cb5b14610334578063a4898fd514610368576100cf565b8063047701e4146100d4578063485cc955146101ac5780635d953fde14610210578063622bc90e14610244578063696ea033146102b2578063715018a6146102e6575b600080fd5b6101aa600480360360408110156100ea57600080fd5b81019080803573ffffffffffffffffffffffffffffffffffffffff1690602001909291908035906020019064010000000081111561012757600080fd5b82018360208201111561013957600080fd5b8035906020019184602083028401116401000000008311171561015b57600080fd5b919080806020026020016040519081016040528093929190818152602001838360200280828437600081840152601f19601f8201169050808301925050505050505091929192905050506104ac565b005b61020e600480360360408110156101c257600080fd5b81019080803573ffffffffffffffffffffffffffffffffffffffff169060200190929190803573ffffffffffffffffffffffffffffffffffffffff169060200190929190505050610626565b005b6102186107ab565b604051808273ffffffffffffffffffffffffffffffffffffffff16815260200191505060405180910390f35b6102866004803603602081101561025a57600080fd5b81019080803573ffffffffffffffffffffffffffffffffffffffff1690602001909291905050506107d1565b604051808273ffffffffffffffffffffffffffffffffffffffff16815260200191505060405180910390f35b6102ba61083a565b604051808273ffffffffffffffffffffffffffffffffffffffff16815260200191505060405180910390f35b6102ee610860565b005b6103326004803603602081101561030657600080fd5b81019080803573ffffffffffffffffffffffffffffffffffffffff1690602001909291905050506109e6565b005b61033c610af2565b604051808273ffffffffffffffffffffffffffffffffffffffff16815260200191505060405180910390f35b6103aa6004803603602081101561037e57600080fd5b81019080803573ffffffffffffffffffffffffffffffffffffffff169060200190929190505050610b1b565b005b6103b4610dd5565b005b6103f8600480360360208110156103cc57600080fd5b81019080803573ffffffffffffffffffffffffffffffffffffffff169060200190929190505050610f5e565b604051808273ffffffffffffffffffffffffffffffffffffffff16815260200191505060405180910390f35b6104666004803603602081101561043a57600080fd5b81019080803573ffffffffffffffffffffffffffffffffffffffff169060200190929190505050610f91565b005b6104aa6004803603602081101561047e57600080fd5b81019080803573ffffffffffffffffffffffffffffffffffffffff16906020019092919050505061109d565b005b6104b46112a8565b73ffffffffffffffffffffffffffffffffffffffff1660008054906101000a900473ffffffffffffffffffffffffffffffffffffffff1673ffffffffffffffffffffffffffffffffffffffff1614610574576040517f08c379a00000000000000000000000000000000000000000000000000000000081526004018080602001828103825260208152602001807f4f776e61626c653a2063616c6c6572206973206e6f7420746865206f776e657281525060200191505060405180910390fd5b60005b81518110156106215781818151811061058c57fe5b602002602001015173ffffffffffffffffffffffffffffffffffffffff1663f2fde38b846040518263ffffffff1660e01b8152600401808273ffffffffffffffffffffffffffffffffffffffff168152602001915050600060405180830381600087803b1580156105fc57600080fd5b505af1158015610610573d6000803e3d6000fd5b505050508080600101915050610577565b505050565b600060159054906101000a900460ff168061064557506106446112b0565b5b8061065d5750600060149054906101000a900460ff16155b6106b2576040517f08c379a000000000000000000000000000000000000000000000000000000000815260040180806020018281038252602e81526020018061538d602e913960400191505060405180910390fd5b60008060159054906101000a900460ff161590508015610703576001600060156101000a81548160ff0219169083151502179055506001600060146101000a81548160ff0219169083151502179055505b82600360006101000a81548173ffffffffffffffffffffffffffffffffffffffff021916908373ffffffffffffffffffffffffffffffffffffffff16021790555081600460006101000a81548173ffffffffffffffffffffffffffffffffffffffff021916908373ffffffffffffffffffffffffffffffffffffffff16021790555080156107a65760008060156101000a81548160ff0219169083151502179055505b505050565b600460009054906101000a900473ffffffffffffffffffffffffffffffffffffffff1681565b6000600160008373ffffffffffffffffffffffffffffffffffffffff1673ffffffffffffffffffffffffffffffffffffffff16815260200190815260200160002060009054906101000a900473ffffffffffffffffffffffffffffffffffffffff169050919050565b600360009054906101000a900473ffffffffffffffffffffffffffffffffffffffff1681565b6108686112a8565b73ffffffffffffffffffffffffffffffffffffffff1660008054906101000a900473ffffffffffffffffffffffffffffffffffffffff1673ffffffffffffffffffffffffffffffffffffffff1614610928576040517f08c379a00000000000000000000000000000000000000000000000000000000081526004018080602001828103825260208152602001807f4f776e61626c653a2063616c6c6572206973206e6f7420746865206f776e657281525060200191505060405180910390fd5b600073ffffffffffffffffffffffffffffffffffffffff1660008054906101000a900473ffffffffffffffffffffffffffffffffffffffff1673ffffffffffffffffffffffffffffffffffffffff167f8be0079c531659141344cd1fd0a4f28419497f9722a3daafe3b4186f6b6457e060405160405180910390a360008060006101000a81548173ffffffffffffffffffffffffffffffffffffffff021916908373ffffffffffffffffffffffffffffffffffffffff160217905550565b6109ee6112a8565b73ffffffffffffffffffffffffffffffffffffffff1660008054906101000a900473ffffffffffffffffffffffffffffffffffffffff1673ffffffffffffffffffffffffffffffffffffffff1614610aae576040517f08c379a00000000000000000000000000000000000000000000000000000000081526004018080602001828103825260208152602001807f4f776e61626c653a2063616c6c6572206973206e6f7420746865206f776e657281525060200191505060405180910390fd5b80600360006101000a81548173ffffffffffffffffffffffffffffffffffffffff021916908373ffffffffffffffffffffffffffffffffffffffff16021790555050565b60008060009054906101000a900473ffffffffffffffffffffffffffffffffffffffff16905090565b6000604051610b29906112c7565b604051809103906000f080158015610b45573d6000803e3d6000fd5b5090508073ffffffffffffffffffffffffffffffffffffffff16631459457a303385600360009054906101000a900473ffffffffffffffffffffffffffffffffffffffff16600460009054906101000a900473ffffffffffffffffffffffffffffffffffffffff166040518663ffffffff1660e01b8152600401808673ffffffffffffffffffffffffffffffffffffffff1681526020018573ffffffffffffffffffffffffffffffffffffffff1681526020018473ffffffffffffffffffffffffffffffffffffffff1681526020018373ffffffffffffffffffffffffffffffffffffffff1681526020018273ffffffffffffffffffffffffffffffffffffffff16815260200195505050505050600060405180830381600087803b158015610c6d57600080fd5b505af1158015610c81573d6000803e3d6000fd5b5050505080600160008473ffffffffffffffffffffffffffffffffffffffff1673ffffffffffffffffffffffffffffffffffffffff16815260200190815260200160002060006101000a81548173ffffffffffffffffffffffffffffffffffffffff021916908373ffffffffffffffffffffffffffffffffffffffff1602179055506002819080600181540180825580915050600190039060005260206000200160009091909190916101000a81548173ffffffffffffffffffffffffffffffffffffffff021916908373ffffffffffffffffffffffffffffffffffffffff1602179055507f33c981baba081f8fd2c52ac6ad1ea95b6814b4376640f55689051f65847296888183604051808373ffffffffffffffffffffffffffffffffffffffff1681526020018273ffffffffffffffffffffffffffffffffffffffff1681526020019250505060405180910390a15050565b610ddd6112a8565b73ffffffffffffffffffffffffffffffffffffffff1660008054906101000a900473ffffffffffffffffffffffffffffffffffffffff1673ffffffffffffffffffffffffffffffffffffffff1614610e9d576040517f08c379a00000000000000000000000000000000000000000000000000000000081526004018080602001828103825260208152602001807f4f776e61626c653a2063616c6c6572206973206e6f7420746865206f776e657281525060200191505060405180910390fd5b600160003373ffffffffffffffffffffffffffffffffffffffff1673ffffffffffffffffffffffffffffffffffffffff16815260200190815260200160002060009054906101000a900473ffffffffffffffffffffffffffffffffffffffff1673ffffffffffffffffffffffffffffffffffffffff1663dc03a9926040518163ffffffff1660e01b8152600401600060405180830381600087803b158015610f4457600080fd5b505af1158015610f58573d6000803e3d6000fd5b50505050565b60016020528060005260406000206000915054906101000a900473ffffffffffffffffffffffffffffffffffffffff1681565b610f996112a8565b73ffffffffffffffffffffffffffffffffffffffff1660008054906101000a900473ffffffffffffffffffffffffffffffffffffffff1673ffffffffffffffffffffffffffffffffffffffff1614611059576040517f08c379a00000000000000000000000000000000000000000000000000000000081526004018080602001828103825260208152602001807f4f776e61626c653a2063616c6c6572206973206e6f7420746865206f776e657281525060200191505060405180910390fd5b80600460006101000a81548173ffffffffffffffffffffffffffffffffffffffff021916908373ffffffffffffffffffffffffffffffffffffffff16021790555050565b6110a56112a8565b73ffffffffffffffffffffffffffffffffffffffff1660008054906101000a900473ffffffffffffffffffffffffffffffffffffffff1673ffffffffffffffffffffffffffffffffffffffff1614611165576040517f08c379a00000000000000000000000000000000000000000000000000000000081526004018080602001828103825260208152602001807f4f776e61626c653a2063616c6c6572206973206e6f7420746865206f776e657281525060200191505060405180910390fd5b600073ffffffffffffffffffffffffffffffffffffffff168173ffffffffffffffffffffffffffffffffffffffff1614156111eb576040517f08c379a00000000000000000000000000000000000000000000000000000000081526004018080602001828103825260268152602001806153676026913960400191505060405180910390fd5b8073ffffffffffffffffffffffffffffffffffffffff1660008054906101000a900473ffffffffffffffffffffffffffffffffffffffff1673ffffffffffffffffffffffffffffffffffffffff167f8be0079c531659141344cd1fd0a4f28419497f9722a3daafe3b4186f6b6457e060405160405180910390a3806000806101000a81548173ffffffffffffffffffffffffffffffffffffffff021916908373ffffffffffffffffffffffffffffffffffffffff16021790555050565b600033905090565b6000803090506000813b9050600081149250505090565b614092806112d58339019056fe60806040526000600760006101000a81548160ff0219169083151502179055503480156200002c57600080fd5b5060006200003f620000e360201b60201c565b9050806000806101000a81548173ffffffffffffffffffffffffffffffffffffffff021916908373ffffffffffffffffffffffffffffffffffffffff1602179055508073ffffffffffffffffffffffffffffffffffffffff16600073ffffffffffffffffffffffffffffffffffffffff167f8be0079c531659141344cd1fd0a4f28419497f9722a3daafe3b4186f6b6457e060405160405180910390a350620000eb565b600033905090565b613f9780620000fb6000396000f3fe608060405234801561001057600080fd5b50600436106101425760003560e01c80636ff1c9bc116100b8578063a8a15a211161007c578063a8a15a211461046d578063bf01e1cd1461049b578063ce95c3d1146104c9578063dc03a992146104d3578063f2fde38b146104dd578063fd5253141461052157610142565b80636ff1c9bc14610387578063715018a6146103cb5780638da5cb5b146103d55780639552734f14610409578063a0e88ccc1461043957610142565b80634b24ea471161010a5780634b24ea471461027f5780635d953fde146102b357806365d97735146102e757806367a9c3e514610315578063696ea0331461031f5780636ad5b3ea1461035357610142565b806307caf9011461014757806307e9c020146101755780631459457a146101935780633ee16c671461025757806345acd6b414610275575b600080fd5b6101736004803603602081101561015d57600080fd5b810190808035906020019092919050505061055b565b005b61017d6109a9565b6040518082815260200191505060405180910390f35b610255600480360360a08110156101a957600080fd5b81019080803573ffffffffffffffffffffffffffffffffffffffff169060200190929190803573ffffffffffffffffffffffffffffffffffffffff169060200190929190803573ffffffffffffffffffffffffffffffffffffffff169060200190929190803573ffffffffffffffffffffffffffffffffffffffff169060200190929190803573ffffffffffffffffffffffffffffffffffffffff1690602001909291905050506109b3565b005b61025f610bfe565b6040518082815260200191505060405180910390f35b61027d610c04565b005b610287611151565b604051808273ffffffffffffffffffffffffffffffffffffffff16815260200191505060405180910390f35b6102bb611177565b604051808273ffffffffffffffffffffffffffffffffffffffff16815260200191505060405180910390f35b610313600480360360208110156102fd57600080fd5b810190808035906020019092919050505061119d565b005b61031d6118df565b005b610327611e2c565b604051808273ffffffffffffffffffffffffffffffffffffffff16815260200191505060405180910390f35b61035b611e52565b604051808273ffffffffffffffffffffffffffffffffffffffff16815260200191505060405180910390f35b6103c96004803603602081101561039d57600080fd5b81019080803573ffffffffffffffffffffffffffffffffffffffff169060200190929190505050611e78565b005b6103d36121a9565b005b6103dd61232f565b604051808273ffffffffffffffffffffffffffffffffffffffff16815260200191505060405180910390f35b6104376004803603602081101561041f57600080fd5b81019080803515159060200190929190505050612358565b005b610441612943565b604051808273ffffffffffffffffffffffffffffffffffffffff16815260200191505060405180910390f35b6104996004803603602081101561048357600080fd5b8101908080359060200190929190505050612969565b005b6104c7600480360360208110156104b157600080fd5b8101908080359060200190929190505050612db7565b005b6104d1612e67565b005b6104db613200565b005b61051f600480360360208110156104f357600080fd5b81019080803573ffffffffffffffffffffffffffffffffffffffff169060200190929190505050613494565b005b6105596004803603604081101561053757600080fd5b810190808035906020019092919080351515906020019092919050505061369f565b005b3373ffffffffffffffffffffffffffffffffffffffff16600560009054906101000a900473ffffffffffffffffffffffffffffffffffffffff1673ffffffffffffffffffffffffffffffffffffffff16148061060457503373ffffffffffffffffffffffffffffffffffffffff16600460009054906101000a900473ffffffffffffffffffffffffffffffffffffffff1673ffffffffffffffffffffffffffffffffffffffff16145b610659576040517f08c379a0000000000000000000000000000000000000000000000000000000008152600401808060200182810382526022815260200180613cc16022913960400191505060405180910390fd5b60001515600760009054906101000a900460ff161515146106c5576040517f08c379a0000000000000000000000000000000000000000000000000000000008152600401808060200182810382526032815260200180613efc6032913960400191505060405180910390fd5b600060f81b6006546000602081106106d957fe5b1a60f81b7effffffffffffffffffffffffffffffffffffffffffffffffffffffffffffff19161415610756576040517f08c379a000000000000000000000000000000000000000000000000000000000815260040180806020018281038252602c815260200180613ce3602c913960400191505060405180910390fd5b600081116107af576040517f08c379a000000000000000000000000000000000000000000000000000000000815260040180806020018281038252602c815260200180613d0f602c913960400191505060405180910390fd5b600260009054906101000a900473ffffffffffffffffffffffffffffffffffffffff1673ffffffffffffffffffffffffffffffffffffffff166323b872dd3330846040518463ffffffff1660e01b8152600401808473ffffffffffffffffffffffffffffffffffffffff1681526020018373ffffffffffffffffffffffffffffffffffffffff1681526020018281526020019350505050602060405180830381600087803b15801561086057600080fd5b505af1158015610874573d6000803e3d6000fd5b505050506040513d602081101561088a57600080fd5b810190808051906020019092919050505050600260009054906101000a900473ffffffffffffffffffffffffffffffffffffffff1673ffffffffffffffffffffffffffffffffffffffff1663bcf64e05826006546040518363ffffffff1660e01b81526004018083815260200182815260200192505050600060405180830381600087803b15801561091b57600080fd5b505af115801561092f573d6000803e3d6000fd5b505050506001600760006101000a81548160ff0219169083151502179055503373ffffffffffffffffffffffffffffffffffffffff167f321124c9bb3fcb84162e1eed8a7a9a9f7291cbef5d168c0ebb0579d57f9131c482600654604051808381526020018281526020019250505060405180910390a250565b6000600654905090565b600060159054906101000a900460ff16806109d257506109d1613ca1565b5b806109ea5750600060149054906101000a900460ff16155b610a3f576040517f08c379a000000000000000000000000000000000000000000000000000000000815260040180806020018281038252602e815260200180613dff602e913960400191505060405180910390fd5b60008060159054906101000a900460ff161590508015610a90576001600060156101000a81548160ff0219169083151502179055506001600060146101000a81548160ff0219169083151502179055505b85600360006101000a81548173ffffffffffffffffffffffffffffffffffffffff021916908373ffffffffffffffffffffffffffffffffffffffff16021790555083600560006101000a81548173ffffffffffffffffffffffffffffffffffffffff021916908373ffffffffffffffffffffffffffffffffffffffff16021790555084600460006101000a81548173ffffffffffffffffffffffffffffffffffffffff021916908373ffffffffffffffffffffffffffffffffffffffff16021790555082600160006101000a81548173ffffffffffffffffffffffffffffffffffffffff021916908373ffffffffffffffffffffffffffffffffffffffff16021790555081600260006101000a81548173ffffffffffffffffffffffffffffffffffffffff021916908373ffffffffffffffffffffffffffffffffffffffff1602179055508015610bf65760008060156101000a81548160ff0219169083151502179055505b505050505050565b60065481565b3373ffffffffffffffffffffffffffffffffffffffff16600560009054906101000a900473ffffffffffffffffffffffffffffffffffffffff1673ffffffffffffffffffffffffffffffffffffffff161480610cad57503373ffffffffffffffffffffffffffffffffffffffff16600460009054906101000a900473ffffffffffffffffffffffffffffffffffffffff1673ffffffffffffffffffffffffffffffffffffffff16145b610d02576040517f08c379a0000000000000000000000000000000000000000000000000000000008152600401808060200182810382526022815260200180613cc16022913960400191505060405180910390fd5b60011515600760009054906101000a900460ff16151514610d6e576040517f08c379a0000000000000000000000000000000000000000000000000000000008152600401808060200182810382526034815260200180613f2e6034913960400191505060405180910390fd5b600060f81b600654600060208110610d8257fe5b1a60f81b7effffffffffffffffffffffffffffffffffffffffffffffffffffffffffffff19161415610dff576040517f08c379a000000000000000000000000000000000000000000000000000000000815260040180806020018281038252602c815260200180613ce3602c913960400191505060405180910390fd5b6000600160009054906101000a900473ffffffffffffffffffffffffffffffffffffffff1673ffffffffffffffffffffffffffffffffffffffff166370a08231306040518263ffffffff1660e01b8152600401808273ffffffffffffffffffffffffffffffffffffffff16815260200191505060206040518083038186803b158015610e8a57600080fd5b505afa158015610e9e573d6000803e3d6000fd5b505050506040513d6020811015610eb457600080fd5b810190808051906020019092919050505011610f1b576040517f08c379a000000000000000000000000000000000000000000000000000000000815260040180806020018281038252603a815260200180613dc5603a913960400191505060405180910390fd5b600160009054906101000a900473ffffffffffffffffffffffffffffffffffffffff1673ffffffffffffffffffffffffffffffffffffffff1663a9059cbb600560009054906101000a900473ffffffffffffffffffffffffffffffffffffffff16600160009054906101000a900473ffffffffffffffffffffffffffffffffffffffff1673ffffffffffffffffffffffffffffffffffffffff166370a08231306040518263ffffffff1660e01b8152600401808273ffffffffffffffffffffffffffffffffffffffff16815260200191505060206040518083038186803b15801561100557600080fd5b505afa158015611019573d6000803e3d6000fd5b505050506040513d602081101561102f57600080fd5b81019080805190602001909291905050506040518363ffffffff1660e01b8152600401808373ffffffffffffffffffffffffffffffffffffffff16815260200182815260200192505050602060405180830381600087803b15801561109357600080fd5b505af11580156110a7573d6000803e3d6000fd5b505050506040513d60208110156110bd57600080fd5b8101908080519060200190929190505050506000600760006101000a81548160ff021916908315150217905550600560009054906101000a900473ffffffffffffffffffffffffffffffffffffffff1673ffffffffffffffffffffffffffffffffffffffff167fa6ee2a42b8e91ddbebaa79e13cc6647ffe615b43b11b2a3101e33729b5143df860405160405180910390a2565b600460009054906101000a900473ffffffffffffffffffffffffffffffffffffffff1681565b600260009054906101000a900473ffffffffffffffffffffffffffffffffffffffff1681565b3373ffffffffffffffffffffffffffffffffffffffff16600560009054906101000a900473ffffffffffffffffffffffffffffffffffffffff1673ffffffffffffffffffffffffffffffffffffffff16148061124657503373ffffffffffffffffffffffffffffffffffffffff16600460009054906101000a900473ffffffffffffffffffffffffffffffffffffffff1673ffffffffffffffffffffffffffffffffffffffff16145b61129b576040517f08c379a0000000000000000000000000000000000000000000000000000000008152600401808060200182810382526022815260200180613cc16022913960400191505060405180910390fd5b60001515600760009054906101000a900460ff16151514611307576040517f08c379a0000000000000000000000000000000000000000000000000000000008152600401808060200182810382526032815260200180613efc6032913960400191505060405180910390fd5b600060f81b60065460006020811061131b57fe5b1a60f81b7effffffffffffffffffffffffffffffffffffffffffffffffffffffffffffff19161415611398576040517f08c379a000000000000000000000000000000000000000000000000000000000815260040180806020018281038252602c815260200180613ce3602c913960400191505060405180910390fd5b600080821415611589576000600260009054906101000a900473ffffffffffffffffffffffffffffffffffffffff1673ffffffffffffffffffffffffffffffffffffffff166370a08231306040518263ffffffff1660e01b8152600401808273ffffffffffffffffffffffffffffffffffffffff16815260200191505060206040518083038186803b15801561142d57600080fd5b505afa158015611441573d6000803e3d6000fd5b505050506040513d602081101561145757600080fd5b8101908080519060200190929190505050116114be576040517f08c379a000000000000000000000000000000000000000000000000000000000815260040180806020018281038252603a815260200180613d8b603a913960400191505060405180910390fd5b600260009054906101000a900473ffffffffffffffffffffffffffffffffffffffff1673ffffffffffffffffffffffffffffffffffffffff166370a08231306040518263ffffffff1660e01b8152600401808273ffffffffffffffffffffffffffffffffffffffff16815260200191505060206040518083038186803b15801561154757600080fd5b505afa15801561155b573d6000803e3d6000fd5b505050506040513d602081101561157157600080fd5b810190808051906020019092919050505090506117d1565b6000600260009054906101000a900473ffffffffffffffffffffffffffffffffffffffff1673ffffffffffffffffffffffffffffffffffffffff166370a08231306040518263ffffffff1660e01b8152600401808273ffffffffffffffffffffffffffffffffffffffff16815260200191505060206040518083038186803b15801561161457600080fd5b505afa158015611628573d6000803e3d6000fd5b505050506040513d602081101561163e57600080fd5b810190808051906020019092919050505011801561165c5750600082115b6116b1576040517f08c379a000000000000000000000000000000000000000000000000000000000815260040180806020018281038252603a815260200180613d8b603a913960400191505060405180910390fd5b600260009054906101000a900473ffffffffffffffffffffffffffffffffffffffff1673ffffffffffffffffffffffffffffffffffffffff166370a08231306040518263ffffffff1660e01b8152600401808273ffffffffffffffffffffffffffffffffffffffff16815260200191505060206040518083038186803b15801561173a57600080fd5b505afa15801561174e573d6000803e3d6000fd5b505050506040513d602081101561176457600080fd5b81019080805190602001909291905050508211156117cd576040517f08c379a0000000000000000000000000000000000000000000000000000000008152600401808060200182810382526051815260200180613e736051913960600191505060405180910390fd5b8190505b600260009054906101000a900473ffffffffffffffffffffffffffffffffffffffff1673ffffffffffffffffffffffffffffffffffffffff1663bcf64e05826006546040518363ffffffff1660e01b81526004018083815260200182815260200192505050600060405180830381600087803b15801561185057600080fd5b505af1158015611864573d6000803e3d6000fd5b505050506001600760006101000a81548160ff0219169083151502179055503373ffffffffffffffffffffffffffffffffffffffff167f321124c9bb3fcb84162e1eed8a7a9a9f7291cbef5d168c0ebb0579d57f9131c482600654604051808381526020018281526020019250505060405180910390a25050565b3373ffffffffffffffffffffffffffffffffffffffff16600560009054906101000a900473ffffffffffffffffffffffffffffffffffffffff1673ffffffffffffffffffffffffffffffffffffffff16148061198857503373ffffffffffffffffffffffffffffffffffffffff16600460009054906101000a900473ffffffffffffffffffffffffffffffffffffffff1673ffffffffffffffffffffffffffffffffffffffff16145b6119dd576040517f08c379a0000000000000000000000000000000000000000000000000000000008152600401808060200182810382526022815260200180613cc16022913960400191505060405180910390fd5b60011515600760009054906101000a900460ff16151514611a49576040517f08c379a0000000000000000000000000000000000000000000000000000000008152600401808060200182810382526034815260200180613f2e6034913960400191505060405180910390fd5b600060f81b600654600060208110611a5d57fe5b1a60f81b7effffffffffffffffffffffffffffffffffffffffffffffffffffffffffffff19161415611ada576040517f08c379a000000000000000000000000000000000000000000000000000000000815260040180806020018281038252602c815260200180613ce3602c913960400191505060405180910390fd5b6000600260009054906101000a900473ffffffffffffffffffffffffffffffffffffffff1673ffffffffffffffffffffffffffffffffffffffff166370a08231306040518263ffffffff1660e01b8152600401808273ffffffffffffffffffffffffffffffffffffffff16815260200191505060206040518083038186803b158015611b6557600080fd5b505afa158015611b79573d6000803e3d6000fd5b505050506040513d6020811015611b8f57600080fd5b810190808051906020019092919050505011611bf6576040517f08c379a0000000000000000000000000000000000000000000000000000000008152600401808060200182810382526038815260200180613ec46038913960400191505060405180910390fd5b600260009054906101000a900473ffffffffffffffffffffffffffffffffffffffff1673ffffffffffffffffffffffffffffffffffffffff1663a9059cbb600560009054906101000a900473ffffffffffffffffffffffffffffffffffffffff16600260009054906101000a900473ffffffffffffffffffffffffffffffffffffffff1673ffffffffffffffffffffffffffffffffffffffff166370a08231306040518263ffffffff1660e01b8152600401808273ffffffffffffffffffffffffffffffffffffffff16815260200191505060206040518083038186803b158015611ce057600080fd5b505afa158015611cf4573d6000803e3d6000fd5b505050506040513d6020811015611d0a57600080fd5b81019080805190602001909291905050506040518363ffffffff1660e01b8152600401808373ffffffffffffffffffffffffffffffffffffffff16815260200182815260200192505050602060405180830381600087803b158015611d6e57600080fd5b505af1158015611d82573d6000803e3d6000fd5b505050506040513d6020811015611d9857600080fd5b8101908080519060200190929190505050506000600760006101000a81548160ff021916908315150217905550600560009054906101000a900473ffffffffffffffffffffffffffffffffffffffff1673ffffffffffffffffffffffffffffffffffffffff167fb7c0b7b38c3b275792ec10721de917c23295e4182797644a61c51c4aca81f38160405160405180910390a2565b600160009054906101000a900473ffffffffffffffffffffffffffffffffffffffff1681565b600560009054906101000a900473ffffffffffffffffffffffffffffffffffffffff1681565b3373ffffffffffffffffffffffffffffffffffffffff16600460009054906101000a900473ffffffffffffffffffffffffffffffffffffffff1673ffffffffffffffffffffffffffffffffffffffff1614611f1e576040517f08c379a000000000000000000000000000000000000000000000000000000000815260040180806020018281038252602a815260200180613d61602a913960400191505060405180910390fd5b8073ffffffffffffffffffffffffffffffffffffffff1663a9059cbb600560009054906101000a900473ffffffffffffffffffffffffffffffffffffffff168373ffffffffffffffffffffffffffffffffffffffff166370a08231306040518263ffffffff1660e01b8152600401808273ffffffffffffffffffffffffffffffffffffffff16815260200191505060206040518083038186803b158015611fc457600080fd5b505afa158015611fd8573d6000803e3d6000fd5b505050506040513d6020811015611fee57600080fd5b81019080805190602001909291905050506040518363ffffffff1660e01b8152600401808373ffffffffffffffffffffffffffffffffffffffff16815260200182815260200192505050602060405180830381600087803b15801561205257600080fd5b505af1158015612066573d6000803e3d6000fd5b505050506040513d602081101561207c57600080fd5b8101908080519060200190929190505050507fb7f141516d2fa57bb31932cd02f8ab9ff99d1a5663578bb9e23a83675d17f6fd818273ffffffffffffffffffffffffffffffffffffffff166370a08231600560009054906101000a900473ffffffffffffffffffffffffffffffffffffffff166040518263ffffffff1660e01b8152600401808273ffffffffffffffffffffffffffffffffffffffff16815260200191505060206040518083038186803b15801561213957600080fd5b505afa15801561214d573d6000803e3d6000fd5b505050506040513d602081101561216357600080fd5b8101908080519060200190929190505050604051808373ffffffffffffffffffffffffffffffffffffffff1681526020018281526020019250505060405180910390a150565b6121b1613cb8565b73ffffffffffffffffffffffffffffffffffffffff1660008054906101000a900473ffffffffffffffffffffffffffffffffffffffff1673ffffffffffffffffffffffffffffffffffffffff1614612271576040517f08c379a00000000000000000000000000000000000000000000000000000000081526004018080602001828103825260208152602001807f4f776e61626c653a2063616c6c6572206973206e6f7420746865206f776e657281525060200191505060405180910390fd5b600073ffffffffffffffffffffffffffffffffffffffff1660008054906101000a900473ffffffffffffffffffffffffffffffffffffffff1673ffffffffffffffffffffffffffffffffffffffff167f8be0079c531659141344cd1fd0a4f28419497f9722a3daafe3b4186f6b6457e060405160405180910390a360008060006101000a81548173ffffffffffffffffffffffffffffffffffffffff021916908373ffffffffffffffffffffffffffffffffffffffff160217905550565b60008060009054906101000a900473ffffffffffffffffffffffffffffffffffffffff16905090565b3373ffffffffffffffffffffffffffffffffffffffff16600560009054906101000a900473ffffffffffffffffffffffffffffffffffffffff1673ffffffffffffffffffffffffffffffffffffffff16148061240157503373ffffffffffffffffffffffffffffffffffffffff16600460009054906101000a900473ffffffffffffffffffffffffffffffffffffffff1673ffffffffffffffffffffffffffffffffffffffff16145b612456576040517f08c379a0000000000000000000000000000000000000000000000000000000008152600401808060200182810382526022815260200180613cc16022913960400191505060405180910390fd5b60011515600760009054906101000a900460ff161515146124c2576040517f08c379a0000000000000000000000000000000000000000000000000000000008152600401808060200182810382526034815260200180613f2e6034913960400191505060405180910390fd5b600060f81b6006546000602081106124d657fe5b1a60f81b7effffffffffffffffffffffffffffffffffffffffffffffffffffffffffffff19161415612553576040517f08c379a000000000000000000000000000000000000000000000000000000000815260040180806020018281038252602c815260200180613ce3602c913960400191505060405180910390fd5b60011515811515141561275257600060603073ffffffffffffffffffffffffffffffffffffffff166040516024016040516020818303038152906040527fce95c3d1000000000000000000000000000000000000000000000000000000007bffffffffffffffffffffffffffffffffffffffffffffffffffffffff19166020820180517bffffffffffffffffffffffffffffffffffffffffffffffffffffffff83818316178352505050506040518082805190602001908083835b60208310612631578051825260208201915060208101905060208303925061260e565b6001836020036101000a038019825116818451168082178552505050505050905001915050600060405180830381855af49150503d8060008114612691576040519150601f19603f3d011682016040523d82523d6000602084013e612696565b606091505b50915091506001151582151514819061274a576040517f08c379a00000000000000000000000000000000000000000000000000000000081526004018080602001828103825283818151815260200191508051906020019080838360005b8381101561270f5780820151818401526020810190506126f4565b50505050905090810190601f16801561273c5780820380516001836020036101000a031916815260200191505b509250505060405180910390fd5b505050612940565b600060603073ffffffffffffffffffffffffffffffffffffffff166040516024016040516020818303038152906040527f67a9c3e5000000000000000000000000000000000000000000000000000000007bffffffffffffffffffffffffffffffffffffffffffffffffffffffff19166020820180517bffffffffffffffffffffffffffffffffffffffffffffffffffffffff83818316178352505050506040518082805190602001908083835b602083106128235780518252602082019150602081019050602083039250612800565b6001836020036101000a038019825116818451168082178552505050505050905001915050600060405180830381855af49150503d8060008114612883576040519150601f19603f3d011682016040523d82523d6000602084013e612888565b606091505b50915091506001151582151514819061293c576040517f08c379a00000000000000000000000000000000000000000000000000000000081526004018080602001828103825283818151815260200191508051906020019080838360005b838110156129015780820151818401526020810190506128e6565b50505050905090810190601f16801561292e5780820380516001836020036101000a031916815260200191505b509250505060405180910390fd5b5050505b50565b600360009054906101000a900473ffffffffffffffffffffffffffffffffffffffff1681565b3373ffffffffffffffffffffffffffffffffffffffff16600560009054906101000a900473ffffffffffffffffffffffffffffffffffffffff1673ffffffffffffffffffffffffffffffffffffffff161480612a1257503373ffffffffffffffffffffffffffffffffffffffff16600460009054906101000a900473ffffffffffffffffffffffffffffffffffffffff1673ffffffffffffffffffffffffffffffffffffffff16145b612a67576040517f08c379a0000000000000000000000000000000000000000000000000000000008152600401808060200182810382526022815260200180613cc16022913960400191505060405180910390fd5b60001515600760009054906101000a900460ff16151514612ad3576040517f08c379a0000000000000000000000000000000000000000000000000000000008152600401808060200182810382526032815260200180613efc6032913960400191505060405180910390fd5b600060f81b600654600060208110612ae757fe5b1a60f81b7effffffffffffffffffffffffffffffffffffffffffffffffffffffffffffff19161415612b64576040517f08c379a000000000000000000000000000000000000000000000000000000000815260040180806020018281038252602c815260200180613ce3602c913960400191505060405180910390fd5b60008111612bbd576040517f08c379a000000000000000000000000000000000000000000000000000000000815260040180806020018281038252602c815260200180613d0f602c913960400191505060405180910390fd5b600160009054906101000a900473ffffffffffffffffffffffffffffffffffffffff1673ffffffffffffffffffffffffffffffffffffffff166323b872dd3330846040518463ffffffff1660e01b8152600401808473ffffffffffffffffffffffffffffffffffffffff1681526020018373ffffffffffffffffffffffffffffffffffffffff1681526020018281526020019350505050602060405180830381600087803b158015612c6e57600080fd5b505af1158015612c82573d6000803e3d6000fd5b505050506040513d6020811015612c9857600080fd5b810190808051906020019092919050505050600160009054906101000a900473ffffffffffffffffffffffffffffffffffffffff1673ffffffffffffffffffffffffffffffffffffffff1663bcf64e05826006546040518363ffffffff1660e01b81526004018083815260200182815260200192505050600060405180830381600087803b158015612d2957600080fd5b505af1158015612d3d573d6000803e3d6000fd5b505050506001600760006101000a81548160ff0219169083151502179055503373ffffffffffffffffffffffffffffffffffffffff167f49cbf3aa6e34b337c41b5c182834ce78101a9439c3effe7490f9ce43bebd5de382600654604051808381526020018281526020019250505060405180910390a250565b3373ffffffffffffffffffffffffffffffffffffffff16600460009054906101000a900473ffffffffffffffffffffffffffffffffffffffff1673ffffffffffffffffffffffffffffffffffffffff1614612e5d576040517f08c379a000000000000000000000000000000000000000000000000000000000815260040180806020018281038252602a815260200180613d61602a913960400191505060405180910390fd5b8060068190555050565b3373ffffffffffffffffffffffffffffffffffffffff16600560009054906101000a900473ffffffffffffffffffffffffffffffffffffffff1673ffffffffffffffffffffffffffffffffffffffff161480612f1057503373ffffffffffffffffffffffffffffffffffffffff16600460009054906101000a900473ffffffffffffffffffffffffffffffffffffffff1673ffffffffffffffffffffffffffffffffffffffff16145b612f65576040517f08c379a0000000000000000000000000000000000000000000000000000000008152600401808060200182810382526022815260200180613cc16022913960400191505060405180910390fd5b60011515600760009054906101000a900460ff16151514612fd1576040517f08c379a0000000000000000000000000000000000000000000000000000000008152600401808060200182810382526034815260200180613f2e6034913960400191505060405180910390fd5b600060f81b600654600060208110612fe557fe5b1a60f81b7effffffffffffffffffffffffffffffffffffffffffffffffffffffffffffff19161415613062576040517f08c379a000000000000000000000000000000000000000000000000000000000815260040180806020018281038252602c815260200180613ce3602c913960400191505060405180910390fd5b6000600260009054906101000a900473ffffffffffffffffffffffffffffffffffffffff1673ffffffffffffffffffffffffffffffffffffffff166370a08231306040518263ffffffff1660e01b8152600401808273ffffffffffffffffffffffffffffffffffffffff16815260200191505060206040518083038186803b1580156130ed57600080fd5b505afa158015613101573d6000803e3d6000fd5b505050506040513d602081101561311757600080fd5b81019080805190602001909291905050501161317e576040517f08c379a0000000000000000000000000000000000000000000000000000000008152600401808060200182810382526046815260200180613e2d6046913960600191505060405180910390fd5b6000600760006101000a81548160ff021916908315150217905550600560009054906101000a900473ffffffffffffffffffffffffffffffffffffffff1673ffffffffffffffffffffffffffffffffffffffff167fb7c0b7b38c3b275792ec10721de917c23295e4182797644a61c51c4aca81f38160405160405180910390a2565b3373ffffffffffffffffffffffffffffffffffffffff16600460009054906101000a900473ffffffffffffffffffffffffffffffffffffffff1673ffffffffffffffffffffffffffffffffffffffff16146132a6576040517f08c379a000000000000000000000000000000000000000000000000000000000815260040180806020018281038252602a815260200180613d61602a913960400191505060405180910390fd5b60011515600760009054906101000a900460ff16151514613312576040517f08c379a0000000000000000000000000000000000000000000000000000000008152600401808060200182810382526034815260200180613f2e6034913960400191505060405180910390fd5b6000600160009054906101000a900473ffffffffffffffffffffffffffffffffffffffff1673ffffffffffffffffffffffffffffffffffffffff166370a08231306040518263ffffffff1660e01b8152600401808273ffffffffffffffffffffffffffffffffffffffff16815260200191505060206040518083038186803b15801561339d57600080fd5b505afa1580156133b1573d6000803e3d6000fd5b505050506040513d60208110156133c757600080fd5b81019080805190602001909291905050501461344b576040517f08c379a000000000000000000000000000000000000000000000000000000000815260040180806020018281038252601e8152602001807f416e63686f724163636f756e743a2063616c6c20696e6974206669727374000081525060200191505060405180910390fd5b6000600760006101000a81548160ff0219169083151502179055507f6013346bda8b36828c348f8b88f691fc94938a5a8704f501ae22954d385cbd9460405160405180910390a1565b61349c613cb8565b73ffffffffffffffffffffffffffffffffffffffff1660008054906101000a900473ffffffffffffffffffffffffffffffffffffffff1673ffffffffffffffffffffffffffffffffffffffff161461355c576040517f08c379a00000000000000000000000000000000000000000000000000000000081526004018080602001828103825260208152602001807f4f776e61626c653a2063616c6c6572206973206e6f7420746865206f776e657281525060200191505060405180910390fd5b600073ffffffffffffffffffffffffffffffffffffffff168173ffffffffffffffffffffffffffffffffffffffff1614156135e2576040517f08c379a0000000000000000000000000000000000000000000000000000000008152600401808060200182810382526026815260200180613d3b6026913960400191505060405180910390fd5b8073ffffffffffffffffffffffffffffffffffffffff1660008054906101000a900473ffffffffffffffffffffffffffffffffffffffff1673ffffffffffffffffffffffffffffffffffffffff167f8be0079c531659141344cd1fd0a4f28419497f9722a3daafe3b4186f6b6457e060405160405180910390a3806000806101000a81548173ffffffffffffffffffffffffffffffffffffffff021916908373ffffffffffffffffffffffffffffffffffffffff16021790555050565b3373ffffffffffffffffffffffffffffffffffffffff16600560009054906101000a900473ffffffffffffffffffffffffffffffffffffffff1673ffffffffffffffffffffffffffffffffffffffff16148061374857503373ffffffffffffffffffffffffffffffffffffffff16600460009054906101000a900473ffffffffffffffffffffffffffffffffffffffff1673ffffffffffffffffffffffffffffffffffffffff16145b61379d576040517f08c379a0000000000000000000000000000000000000000000000000000000008152600401808060200182810382526022815260200180613cc16022913960400191505060405180910390fd5b60001515600760009054906101000a900460ff16151514613809576040517f08c379a0000000000000000000000000000000000000000000000000000000008152600401808060200182810382526032815260200180613efc6032913960400191505060405180910390fd5b600060f81b60065460006020811061381d57fe5b1a60f81b7effffffffffffffffffffffffffffffffffffffffffffffffffffffffffffff1916141561389a576040517f08c379a000000000000000000000000000000000000000000000000000000000815260040180806020018281038252602c815260200180613ce3602c913960400191505060405180910390fd5b600115158115151415613aa457600060603073ffffffffffffffffffffffffffffffffffffffff1684604051602401808281526020019150506040516020818303038152906040527f65d97735000000000000000000000000000000000000000000000000000000007bffffffffffffffffffffffffffffffffffffffffffffffffffffffff19166020820180517bffffffffffffffffffffffffffffffffffffffffffffffffffffffff83818316178352505050506040518082805190602001908083835b602083106139835780518252602082019150602081019050602083039250613960565b6001836020036101000a038019825116818451168082178552505050505050905001915050600060405180830381855af49150503d80600081146139e3576040519150601f19603f3d011682016040523d82523d6000602084013e6139e8565b606091505b509150915060011515821515148190613a9c576040517f08c379a00000000000000000000000000000000000000000000000000000000081526004018080602001828103825283818151815260200191508051906020019080838360005b83811015613a61578082015181840152602081019050613a46565b50505050905090810190601f168015613a8e5780820380516001836020036101000a031916815260200191505b509250505060405180910390fd5b505050613c9d565b600060603073ffffffffffffffffffffffffffffffffffffffff1684604051602401808281526020019150506040516020818303038152906040527f07caf901000000000000000000000000000000000000000000000000000000007bffffffffffffffffffffffffffffffffffffffffffffffffffffffff19166020820180517bffffffffffffffffffffffffffffffffffffffffffffffffffffffff83818316178352505050506040518082805190602001908083835b60208310613b805780518252602082019150602081019050602083039250613b5d565b6001836020036101000a038019825116818451168082178552505050505050905001915050600060405180830381855af49150503d8060008114613be0576040519150601f19603f3d011682016040523d82523d6000602084013e613be5565b606091505b509150915060011515821515148190613c99576040517f08c379a00000000000000000000000000000000000000000000000000000000081526004018080602001828103825283818151815260200191508051906020019080838360005b83811015613c5e578082015181840152602081019050613c43565b50505050905090810190601f168015613c8b5780820380516001836020036101000a031916815260200191505b509250505060405180910390fd5b5050505b5050565b6000803090506000813b9050600081149250505090565b60003390509056fe416e63686f724163636f756e743a20756e617574686f72697a65642073656e646572416e63686f724163636f756e743a2054657272612061646472657373206e6f7420696e697469616c697a6564416e63686f724163636f756e743a20616d6f756e74206d7573742062652067726561746572207468616e20304f776e61626c653a206e6577206f776e657220697320746865207a65726f2061646472657373416e63686f724163636f756e743a206f6e6c792063616c6c61626c6520627920636f6e74726f6c6c6572416e63686f724163636f756e743a20637573746f6479206d6f64653a20616d6f756e74206d7573742062652067726561746572207468616e2030416e63686f724163636f756e743a2066696e69736820726564656d7074696f6e206f7065726174696f6e3a206e6f7420656e6f75676820757374496e697469616c697a61626c653a20636f6e747261637420697320616c726561647920696e697469616c697a6564416e63686f724163636f756e743a20637573746f6479206d6f64653a2066696e697368206465706f736974206f7065726174696f6e3a206e6f7420656e6f7567682061757374416e63686f724163636f756e743a20637573746f6479206d6f64653a20616d6f756e74206d75737420626520736d616c6c6572207468616e2063757272656e7420636f6e74726163742062616c616e6365416e63686f724163636f756e743a2066696e697368206465706f736974206f7065726174696f6e3a206e6f7420656e6f7567682061757374416e63686f724163636f756e743a20696e6974206f7065726174696f6e3a20696e697420616c72656164792063616c6c6564416e63686f724163636f756e743a2066696e697368206f7065726174696f6e3a20696e6974206e6f742063616c6c656420796574a26469706673582212202e214011fa9645d8018c980e3e93d6bca286380e718430240b9f93413b0e83bb64736f6c634300070300334f776e61626c653a206e6577206f776e657220697320746865207a65726f2061646472657373496e697469616c697a61626c653a20636f6e747261637420697320616c726561647920696e697469616c697a6564a2646970667358221220455668b4d1b7ca1e2dbd12fbe391c78fc65ad04a4779396cf6894f230f8260e464736f6c63430007030033",
  "immutableReferences": {},
  "source": "// SPDX-License-Identifier: UNLICENSED\n// AnchorEthFactory.sol: Factory contract for all account contracts\npragma solidity >=0.6.0 <0.8.0;\n\nimport '@openzeppelin/contracts/math/SafeMath.sol';\nimport '@openzeppelin/contracts/token/ERC20/IERC20.sol';\nimport '@openzeppelin/contracts/token/ERC20/SafeERC20.sol';\nimport '@openzeppelin/contracts/access/Ownable.sol';\nimport '@openzeppelin/contracts-upgradeable/proxy/Initializable.sol';\nimport './interfaces/IShuttleAsset.sol';\nimport './interfaces/IAnchorAccount.sol';\n\ncontract AnchorEthFactory is Ownable, Initializable {\n    using SafeMath for uint256;\n    using SafeERC20 for IERC20;\n\n    mapping(address => address) public ContractMap;\n\n    AnchorAccount[] private ContractsList;\n    IShuttleAsset public terrausd;\n    IShuttleAsset public anchorust;\n\n    function initialize(address _terrausd, address _anchorust) public initializer {\n        terrausd = IShuttleAsset(_terrausd);\n        anchorust = IShuttleAsset(_anchorust);\n    }\n\n    // **MUST** be called after calling openzeppelin upgradable_contract_deploy_proxy\n    function migrate(address newContract, address[] memory contracts) public onlyOwner {\n        // migrate subcontract ownership to new contract\n        for (uint i = 0; i < contracts.length; i++) {\n            IAnchorAccount(contracts[i]).transferOwnership(newContract);\n        }\n    }\n\n    // setters\n    function setUSTAddress(IShuttleAsset _terrausd) public onlyOwner {\n        terrausd = _terrausd;\n    }\n\n    function setaUSTAddress(IShuttleAsset _anchorust) public onlyOwner {\n        anchorust = _anchorust;\n    }\n\n    // getters\n    function getContractAddress(address _sender) public view returns (address) {\n        return ContractMap[_sender];\n    }\n\n    function deployContract(address _walletAddress) public {\n        // create new contract\n        AnchorAccount accountContract = new AnchorAccount();\n        accountContract.initialize(address(this), msg.sender, _walletAddress, address(terrausd), address(anchorust));\n        // append to map\n        ContractMap[_walletAddress] = address(accountContract);\n        ContractsList.push(accountContract);\n        // emit contractdeployed event\n        emit ContractDeployed(address(accountContract), _walletAddress);\n    }\n\n    function reportFailure() public onlyOwner {\n        IAnchorAccount(ContractMap[msg.sender]).reportFailure();\n    }\n\n    // Events\n    event ContractDeployed(address account, address sender);\n}\n\n// AnchorAccount.sol: subcontract generated per wallet, defining all relevant wrapping functions\n\ncontract AnchorAccount is Ownable, Initializable {\n    using SafeMath for uint256;\n    using SafeERC20 for IERC20;\n\n    IShuttleAsset public terrausd;\n    IShuttleAsset public anchorust;\n\n    address public anchorFactory;\n    address public controllerAddress;\n    address public walletAddress;\n    bytes32 public terraAddress;\n    bool private ActionFlag = false;\n\n    function initialize(address _anchorFactory, address _controllerAddress, address _walletAddress, address _terrausd, address _anchorust) public initializer {\n        anchorFactory = _anchorFactory;\n        walletAddress = _walletAddress;\n        controllerAddress = _controllerAddress;\n        terrausd = IShuttleAsset(_terrausd);\n        anchorust = IShuttleAsset(_anchorust);\n    }\n\n    modifier checkInit() {\n        require(ActionFlag == false, \"AnchorAccount: init operation: init already called\");\n        _;\n    }\n\n    modifier checkFinish() {\n        require(ActionFlag == true, \"AnchorAccount: finish operation: init not called yet\");\n        _;\n    }\n\n    modifier onlyAuthSender() {\n        require(walletAddress == msg.sender || controllerAddress == msg.sender, \"AnchorAccount: unauthorized sender\");\n        _;\n    }\n    \n    modifier onlyController() {\n        require(controllerAddress == msg.sender, \"AnchorAccount: only callable by controller\");\n        _;\n    }\n\n    modifier terraAddressSet() {\n        require(terraAddress[0] != 0, \"AnchorAccount: Terra address not initialized\");\n        _;\n    }\n\n    function setTerraAddress(bytes32 _terraAddress) public onlyController {\n        terraAddress = _terraAddress;\n    }\n\n    function getTerraAddress() public view returns (bytes32) {\n        return terraAddress;\n    }\n\n    function initDepositStable(uint256 amount) public onlyAuthSender checkInit terraAddressSet {    \n        require(amount > 0, \"AnchorAccount: amount must be greater than 0\");    \n        // transfer UST to contract address\n        terrausd.transferFrom(msg.sender, address(this), amount);\n\n        // transfer UST to Shuttle\n        terrausd.burn(amount, terraAddress);\n\n        // set ActionFlag to true\n        ActionFlag = true;\n\n        // emit initdeposit event\n        emit InitDeposit(msg.sender, amount, terraAddress);\n    }\n\n    /* FINISH DEPOSIT STABLE OPERATIONS -- FUNCTION DEFS */\n    // typical interaction\n    function finishDepositStable() public onlyAuthSender checkFinish terraAddressSet {\n        // transfer aUST to msg.sender\n        // call will fail if aUST was not returned from Shuttle/Anchorbot/Terra contracts\n        require(anchorust.balanceOf(address(this)) > 0, \"AnchorAccount: finish deposit operation: not enough aust\");\n        anchorust.transfer(walletAddress, anchorust.balanceOf(address(this)));\n\n        // set ActionFlag to false\n        ActionFlag = false;\n\n        // emit finishdeposit event\n        emit FinishDeposit(walletAddress);\n    }\n\n    // custody mode\n    function finishDepositStableCustody() public onlyAuthSender checkFinish terraAddressSet {\n        // contract holds returned aUST\n        // call will fail if aUST was not returned from Shuttle/Anchorbot/Terra contracts\n        require(anchorust.balanceOf(address(this)) > 0, \"AnchorAccount: custody mode: finish deposit operation: not enough aust\");\n\n        // set ActionFlag to false\n        ActionFlag = false;\n\n        // emit finishdeposit event\n        emit FinishDeposit(walletAddress);\n    }\n\n    // fallback\n    function finishDepositStable(bool _isCustodyEnabled) public onlyAuthSender checkFinish terraAddressSet {\n        if (_isCustodyEnabled == true) {\n            (bool success, bytes memory data) = address(this).delegatecall(abi.encodeWithSignature(\"finishDepositStableCustody()\"));\n            require(success == true, string(data));\n        }\n        else {\n            (bool success, bytes memory data) = address(this).delegatecall(abi.encodeWithSignature(\"finishDepositStable()\"));\n            require(success == true, string(data));\n        }\n    }\n\n    /* INIT REDEEM STABLE OPERATIONS -- FUNCTION DEFS */\n    // typical interaction\n    function initRedeemStable(uint256 amount) public onlyAuthSender checkInit terraAddressSet {\n        require(amount > 0, \"AnchorAccount: amount must be greater than 0\");\n        // transfer aUST to contract address\n        anchorust.transferFrom(msg.sender, address(this), amount);\n\n        // transfer aUST to Shuttle\n        anchorust.burn(amount, terraAddress);\n\n        // set ActionFlag to true\n        ActionFlag = true;\n\n        // emit initredemption event\n        emit InitRedemption(msg.sender, amount, terraAddress);\n    }\n\n    // custody mode\n    // IF amount == 0: redeem all aUST under contract custody\n    // ELSE: redeem `amount` aUST for UST\n    function initRedeemStableCustody(uint256 amount) public onlyAuthSender checkInit terraAddressSet {\n        uint256 redeemBalance = 0;\n        if (amount == 0) {\n            require(anchorust.balanceOf(address(this)) > 0, \"AnchorAccount: custody mode: amount must be greater than 0\");\n            redeemBalance = anchorust.balanceOf(address(this));\n        }\n\n        else {\n            require(anchorust.balanceOf(address(this)) > 0 && amount > 0, \"AnchorAccount: custody mode: amount must be greater than 0\");\n            require(amount <= anchorust.balanceOf(address(this)), \"AnchorAccount: custody mode: amount must be smaller than current contract balance\");\n            redeemBalance = amount;\n        }\n\n        // transfer aUST to Shuttle\n        anchorust.burn(redeemBalance, terraAddress);\n\n        // set ActionFlag to true\n        ActionFlag = true;\n\n        // emit initredemption event\n        emit InitRedemption(msg.sender, redeemBalance, terraAddress); \n    }\n\n    // fallback\n    function initRedeemStable(uint256 amount, bool _isCustodyEnabled) public onlyAuthSender checkInit terraAddressSet {\n        if (_isCustodyEnabled == true) {\n            (bool success, bytes memory data) = address(this).delegatecall(abi.encodeWithSignature(\"initRedeemStableCustody(uint256)\", amount));\n            require(success == true, string(data));\n        }\n        else {\n            (bool success, bytes memory data) = address(this).delegatecall(abi.encodeWithSignature(\"initRedeemStable(uint256)\", amount));\n            require(success == true, string(data));\n        }\n    }\n\n    function finishRedeemStable() public onlyAuthSender checkFinish terraAddressSet {\n        // transfer UST to msg.sender\n        // call will fail if aUST was not returned from Shuttle/Anchorbot/Terra contracts\n        require(terrausd.balanceOf(address(this)) > 0, \"AnchorAccount: finish redemption operation: not enough ust\");\n        terrausd.transfer(walletAddress, terrausd.balanceOf(address(this)));\n        \n        // set ActionFlag to false\n        ActionFlag = false;\n\n        // emit finishredemption event\n        emit FinishRedemption(walletAddress);\n    }\n\n    function reportFailure() public onlyController checkFinish {\n        // contract owner can force revert init() txs in case of aUST redemption failure\n        // resets ActionFlag and return deposited funds to msg.sender\n        require(terrausd.balanceOf(address(this)) == 0, \"AnchorAccount: call init first\");\n        ActionFlag = false;\n        emit FailureReported();\n    }\n\n    function emergencyWithdraw(address _tokenAddress) public onlyController {\n        // contract owner can withdraw any ERC-20 token stuck inside the contract\n        // and return them to `walletAddress`\n        IERC20(_tokenAddress).transfer(walletAddress, IERC20(_tokenAddress).balanceOf(address(this)));\n        emit EmergencyWithdrawActivated(_tokenAddress, IERC20(_tokenAddress).balanceOf(walletAddress));\n    }\n\n    // Events\n    event InitDeposit(address indexed sender, uint256 amount, bytes32 to);\n    event FinishDeposit(address indexed sender);\n    event InitRedemption(address indexed sender, uint256 amount, bytes32 to);\n    event FinishRedemption(address indexed sender);\n    event FailureReported();\n    event EmergencyWithdrawActivated(address tokenAddress, uint256 amount);\n}\n",
  "sourcePath": "/Users/shhong/Developer/anchor-eth-contracts/contracts/AnchorEthFactory.sol",
  "compiler": {
    "name": "solc",
    "version": "0.7.3+commit.9bfce1f6.Emscripten.clang"
  },
  "schemaVersion": "3.3.3",
  "updatedAt": "2021-03-08T07:24:43.609Z",
  "networkType": "ethereum",
  "devdoc": {
    "kind": "dev",
    "methods": {
      "owner()": {
        "details": "Returns the address of the current owner."
      },
      "renounceOwnership()": {
        "details": "Leaves the contract without owner. It will not be possible to call `onlyOwner` functions anymore. Can only be called by the current owner. NOTE: Renouncing ownership will leave the contract without an owner, thereby removing any functionality that is only available to the owner."
      },
      "transferOwnership(address)": {
        "details": "Transfers ownership of the contract to a new account (`newOwner`). Can only be called by the current owner."
      }
    },
    "version": 1
  },
  "userdoc": {
    "kind": "user",
    "methods": {},
    "version": 1
  }
}