{
  "contractName": "AnchorEthFactory",
  "abi": [
    {
      "inputs": [
        {
          "internalType": "address",
          "name": "_terrausd",
          "type": "address"
        },
        {
          "internalType": "address",
          "name": "_anchorust",
          "type": "address"
        }
      ],
      "stateMutability": "nonpayable",
      "type": "constructor"
    },
    {
      "anonymous": false,
      "inputs": [
        {
          "indexed": false,
          "internalType": "address",
          "name": "account",
          "type": "address"
        },
        {
          "indexed": false,
          "internalType": "address",
          "name": "sender",
          "type": "address"
        }
      ],
      "name": "ContractDeployed",
      "type": "event"
    },
    {
      "anonymous": false,
      "inputs": [
        {
          "indexed": true,
          "internalType": "address",
          "name": "previousOwner",
          "type": "address"
        },
        {
          "indexed": true,
          "internalType": "address",
          "name": "newOwner",
          "type": "address"
        }
      ],
      "name": "OwnershipTransferred",
      "type": "event"
    },
    {
      "inputs": [
        {
          "internalType": "address",
          "name": "",
          "type": "address"
        }
      ],
      "name": "ContractMap",
      "outputs": [
        {
          "internalType": "address",
          "name": "",
          "type": "address"
        }
      ],
      "stateMutability": "view",
      "type": "function",
      "constant": true
    },
    {
      "inputs": [],
      "name": "anchorust",
      "outputs": [
        {
          "internalType": "contract IShuttleAsset",
          "name": "",
          "type": "address"
        }
      ],
      "stateMutability": "view",
      "type": "function",
      "constant": true
    },
    {
      "inputs": [],
      "name": "isMigrated",
      "outputs": [
        {
          "internalType": "bool",
          "name": "",
          "type": "bool"
        }
      ],
      "stateMutability": "view",
      "type": "function",
      "constant": true
    },
    {
      "inputs": [],
      "name": "owner",
      "outputs": [
        {
          "internalType": "address",
          "name": "",
          "type": "address"
        }
      ],
      "stateMutability": "view",
      "type": "function",
      "constant": true
    },
    {
      "inputs": [],
      "name": "renounceOwnership",
      "outputs": [],
      "stateMutability": "nonpayable",
      "type": "function"
    },
    {
      "inputs": [],
      "name": "terrausd",
      "outputs": [
        {
          "internalType": "contract IShuttleAsset",
          "name": "",
          "type": "address"
        }
      ],
      "stateMutability": "view",
      "type": "function",
      "constant": true
    },
    {
      "inputs": [
        {
          "internalType": "address",
          "name": "newOwner",
          "type": "address"
        }
      ],
      "name": "transferOwnership",
      "outputs": [],
      "stateMutability": "nonpayable",
      "type": "function"
    },
    {
      "inputs": [
        {
          "internalType": "address",
          "name": "newContract",
          "type": "address"
        }
      ],
      "name": "migrate",
      "outputs": [],
      "stateMutability": "nonpayable",
      "type": "function"
    },
    {
      "inputs": [
        {
          "internalType": "contract IShuttleAsset",
          "name": "_terrausd",
          "type": "address"
        }
      ],
      "name": "setUSTAddess",
      "outputs": [],
      "stateMutability": "nonpayable",
      "type": "function"
    },
    {
      "inputs": [
        {
          "internalType": "contract IShuttleAsset",
          "name": "_anchorust",
          "type": "address"
        }
      ],
      "name": "setaUSTAddress",
      "outputs": [],
      "stateMutability": "nonpayable",
      "type": "function"
    },
    {
      "inputs": [
        {
          "internalType": "address",
          "name": "_sender",
          "type": "address"
        }
      ],
      "name": "getContractAddress",
      "outputs": [
        {
          "internalType": "address",
          "name": "",
          "type": "address"
        }
      ],
      "stateMutability": "nonpayable",
      "type": "function"
    },
    {
      "inputs": [
        {
          "internalType": "address",
          "name": "_walletAddress",
          "type": "address"
        }
      ],
      "name": "deployContract",
      "outputs": [],
      "stateMutability": "nonpayable",
      "type": "function"
    },
    {
      "inputs": [],
      "name": "reportFailure",
      "outputs": [],
      "stateMutability": "nonpayable",
      "type": "function"
    }
  ],
  "bytecode": "0x60806040526000600460146101000a81548160ff02191690831515021790555034801561002b57600080fd5b506040516134093803806134098339818101604052604081101561004e57600080fd5b81019080805190602001909291908051906020019092919050505060006100796101a060201b60201c565b9050806000806101000a81548173ffffffffffffffffffffffffffffffffffffffff021916908373ffffffffffffffffffffffffffffffffffffffff1602179055508073ffffffffffffffffffffffffffffffffffffffff16600073ffffffffffffffffffffffffffffffffffffffff167f8be0079c531659141344cd1fd0a4f28419497f9722a3daafe3b4186f6b6457e060405160405180910390a35081600360006101000a81548173ffffffffffffffffffffffffffffffffffffffff021916908373ffffffffffffffffffffffffffffffffffffffff16021790555080600460006101000a81548173ffffffffffffffffffffffffffffffffffffffff021916908373ffffffffffffffffffffffffffffffffffffffff16021790555050506101a8565b600033905090565b613252806101b76000396000f3fe608060405234801561001057600080fd5b50600436106100cf5760003560e01c8063b06faf621161008c578063e13ed54b11610066578063e13ed54b1461029a578063f17fd55514610308578063f2fde38b1461034c578063fb5f409214610390576100cf565b8063b06faf621461022c578063ce5494bb1461024c578063dc03a99214610290576100cf565b80635d953fde146100d4578063622bc90e14610108578063696ea03314610176578063715018a6146101aa5780638da5cb5b146101b4578063a4898fd5146101e8575b600080fd5b6100dc6103d4565b604051808273ffffffffffffffffffffffffffffffffffffffff16815260200191505060405180910390f35b61014a6004803603602081101561011e57600080fd5b81019080803573ffffffffffffffffffffffffffffffffffffffff1690602001909291905050506103fa565b604051808273ffffffffffffffffffffffffffffffffffffffff16815260200191505060405180910390f35b61017e610463565b604051808273ffffffffffffffffffffffffffffffffffffffff16815260200191505060405180910390f35b6101b2610489565b005b6101bc61060f565b604051808273ffffffffffffffffffffffffffffffffffffffff16815260200191505060405180910390f35b61022a600480360360208110156101fe57600080fd5b81019080803573ffffffffffffffffffffffffffffffffffffffff169060200190929190505050610638565b005b61023461093c565b60405180821515815260200191505060405180910390f35b61028e6004803603602081101561026257600080fd5b81019080803573ffffffffffffffffffffffffffffffffffffffff16906020019092919050505061094f565b005b610298610b77565b005b6102dc600480360360208110156102b057600080fd5b81019080803573ffffffffffffffffffffffffffffffffffffffff169060200190929190505050610d00565b604051808273ffffffffffffffffffffffffffffffffffffffff16815260200191505060405180910390f35b61034a6004803603602081101561031e57600080fd5b81019080803573ffffffffffffffffffffffffffffffffffffffff169060200190929190505050610d33565b005b61038e6004803603602081101561036257600080fd5b81019080803573ffffffffffffffffffffffffffffffffffffffff169060200190929190505050610e3f565b005b6103d2600480360360208110156103a657600080fd5b81019080803573ffffffffffffffffffffffffffffffffffffffff16906020019092919050505061104a565b005b600460009054906101000a900473ffffffffffffffffffffffffffffffffffffffff1681565b6000600160008373ffffffffffffffffffffffffffffffffffffffff1673ffffffffffffffffffffffffffffffffffffffff16815260200190815260200160002060009054906101000a900473ffffffffffffffffffffffffffffffffffffffff169050919050565b600360009054906101000a900473ffffffffffffffffffffffffffffffffffffffff1681565b610491611156565b73ffffffffffffffffffffffffffffffffffffffff1660008054906101000a900473ffffffffffffffffffffffffffffffffffffffff1673ffffffffffffffffffffffffffffffffffffffff1614610551576040517f08c379a00000000000000000000000000000000000000000000000000000000081526004018080602001828103825260208152602001807f4f776e61626c653a2063616c6c6572206973206e6f7420746865206f776e657281525060200191505060405180910390fd5b600073ffffffffffffffffffffffffffffffffffffffff1660008054906101000a900473ffffffffffffffffffffffffffffffffffffffff1673ffffffffffffffffffffffffffffffffffffffff167f8be0079c531659141344cd1fd0a4f28419497f9722a3daafe3b4186f6b6457e060405160405180910390a360008060006101000a81548173ffffffffffffffffffffffffffffffffffffffff021916908373ffffffffffffffffffffffffffffffffffffffff160217905550565b60008060009054906101000a900473ffffffffffffffffffffffffffffffffffffffff16905090565b610640611156565b73ffffffffffffffffffffffffffffffffffffffff1660008054906101000a900473ffffffffffffffffffffffffffffffffffffffff1673ffffffffffffffffffffffffffffffffffffffff1614610700576040517f08c379a00000000000000000000000000000000000000000000000000000000081526004018080602001828103825260208152602001807f4f776e61626c653a2063616c6c6572206973206e6f7420746865206f776e657281525060200191505060405180910390fd5b60003082600360009054906101000a900473ffffffffffffffffffffffffffffffffffffffff16600460009054906101000a900473ffffffffffffffffffffffffffffffffffffffff166040516107569061115e565b808573ffffffffffffffffffffffffffffffffffffffff1681526020018473ffffffffffffffffffffffffffffffffffffffff1681526020018373ffffffffffffffffffffffffffffffffffffffff1681526020018273ffffffffffffffffffffffffffffffffffffffff168152602001945050505050604051809103906000f0801580156107e9573d6000803e3d6000fd5b50905080600160008473ffffffffffffffffffffffffffffffffffffffff1673ffffffffffffffffffffffffffffffffffffffff16815260200190815260200160002060006101000a81548173ffffffffffffffffffffffffffffffffffffffff021916908373ffffffffffffffffffffffffffffffffffffffff1602179055506002819080600181540180825580915050600190039060005260206000200160009091909190916101000a81548173ffffffffffffffffffffffffffffffffffffffff021916908373ffffffffffffffffffffffffffffffffffffffff1602179055507f33c981baba081f8fd2c52ac6ad1ea95b6814b4376640f55689051f65847296888183604051808373ffffffffffffffffffffffffffffffffffffffff1681526020018273ffffffffffffffffffffffffffffffffffffffff1681526020019250505060405180910390a15050565b600460149054906101000a900460ff1681565b610957611156565b73ffffffffffffffffffffffffffffffffffffffff1660008054906101000a900473ffffffffffffffffffffffffffffffffffffffff1673ffffffffffffffffffffffffffffffffffffffff1614610a17576040517f08c379a00000000000000000000000000000000000000000000000000000000081526004018080602001828103825260208152602001807f4f776e61626c653a2063616c6c6572206973206e6f7420746865206f776e657281525060200191505060405180910390fd5b60001515600460149054906101000a900460ff16151514610a83576040517f08c379a000000000000000000000000000000000000000000000000000000000815260040180806020018281038252602b8152602001806131f2602b913960400191505060405180910390fd5b60005b600280549050811015610b585760028181548110610aa057fe5b9060005260206000200160009054906101000a900473ffffffffffffffffffffffffffffffffffffffff1673ffffffffffffffffffffffffffffffffffffffff1663f2fde38b836040518263ffffffff1660e01b8152600401808273ffffffffffffffffffffffffffffffffffffffff168152602001915050600060405180830381600087803b158015610b3357600080fd5b505af1158015610b47573d6000803e3d6000fd5b505050508080600101915050610a86565b506001600460146101000a81548160ff02191690831515021790555050565b610b7f611156565b73ffffffffffffffffffffffffffffffffffffffff1660008054906101000a900473ffffffffffffffffffffffffffffffffffffffff1673ffffffffffffffffffffffffffffffffffffffff1614610c3f576040517f08c379a00000000000000000000000000000000000000000000000000000000081526004018080602001828103825260208152602001807f4f776e61626c653a2063616c6c6572206973206e6f7420746865206f776e657281525060200191505060405180910390fd5b600160003373ffffffffffffffffffffffffffffffffffffffff1673ffffffffffffffffffffffffffffffffffffffff16815260200190815260200160002060009054906101000a900473ffffffffffffffffffffffffffffffffffffffff1673ffffffffffffffffffffffffffffffffffffffff1663dc03a9926040518163ffffffff1660e01b8152600401600060405180830381600087803b158015610ce657600080fd5b505af1158015610cfa573d6000803e3d6000fd5b50505050565b60016020528060005260406000206000915054906101000a900473ffffffffffffffffffffffffffffffffffffffff1681565b610d3b611156565b73ffffffffffffffffffffffffffffffffffffffff1660008054906101000a900473ffffffffffffffffffffffffffffffffffffffff1673ffffffffffffffffffffffffffffffffffffffff1614610dfb576040517f08c379a00000000000000000000000000000000000000000000000000000000081526004018080602001828103825260208152602001807f4f776e61626c653a2063616c6c6572206973206e6f7420746865206f776e657281525060200191505060405180910390fd5b80600460006101000a81548173ffffffffffffffffffffffffffffffffffffffff021916908373ffffffffffffffffffffffffffffffffffffffff16021790555050565b610e47611156565b73ffffffffffffffffffffffffffffffffffffffff1660008054906101000a900473ffffffffffffffffffffffffffffffffffffffff1673ffffffffffffffffffffffffffffffffffffffff1614610f07576040517f08c379a00000000000000000000000000000000000000000000000000000000081526004018080602001828103825260208152602001807f4f776e61626c653a2063616c6c6572206973206e6f7420746865206f776e657281525060200191505060405180910390fd5b600073ffffffffffffffffffffffffffffffffffffffff168173ffffffffffffffffffffffffffffffffffffffff161415610f8d576040517f08c379a00000000000000000000000000000000000000000000000000000000081526004018080602001828103825260268152602001806131cc6026913960400191505060405180910390fd5b8073ffffffffffffffffffffffffffffffffffffffff1660008054906101000a900473ffffffffffffffffffffffffffffffffffffffff1673ffffffffffffffffffffffffffffffffffffffff167f8be0079c531659141344cd1fd0a4f28419497f9722a3daafe3b4186f6b6457e060405160405180910390a3806000806101000a81548173ffffffffffffffffffffffffffffffffffffffff021916908373ffffffffffffffffffffffffffffffffffffffff16021790555050565b611052611156565b73ffffffffffffffffffffffffffffffffffffffff1660008054906101000a900473ffffffffffffffffffffffffffffffffffffffff1673ffffffffffffffffffffffffffffffffffffffff1614611112576040517f08c379a00000000000000000000000000000000000000000000000000000000081526004018080602001828103825260208152602001807f4f776e61626c653a2063616c6c6572206973206e6f7420746865206f776e657281525060200191505060405180910390fd5b80600360006101000a81548173ffffffffffffffffffffffffffffffffffffffff021916908373ffffffffffffffffffffffffffffffffffffffff16021790555050565b600033905090565b6120608061116c8339019056fe60806040526000600660006101000a81548160ff02191690831515021790555034801561002b57600080fd5b506040516120603803806120608339818101604052608081101561004e57600080fd5b8101908080519060200190929190805190602001909291908051906020019092919080519060200190929190505050600061008d61023860201b60201c565b9050806000806101000a81548173ffffffffffffffffffffffffffffffffffffffff021916908373ffffffffffffffffffffffffffffffffffffffff1602179055508073ffffffffffffffffffffffffffffffffffffffff16600073ffffffffffffffffffffffffffffffffffffffff167f8be0079c531659141344cd1fd0a4f28419497f9722a3daafe3b4186f6b6457e060405160405180910390a35083600360006101000a81548173ffffffffffffffffffffffffffffffffffffffff021916908373ffffffffffffffffffffffffffffffffffffffff16021790555082600460006101000a81548173ffffffffffffffffffffffffffffffffffffffff021916908373ffffffffffffffffffffffffffffffffffffffff16021790555081600160006101000a81548173ffffffffffffffffffffffffffffffffffffffff021916908373ffffffffffffffffffffffffffffffffffffffff16021790555080600260006101000a81548173ffffffffffffffffffffffffffffffffffffffff021916908373ffffffffffffffffffffffffffffffffffffffff16021790555050505050610240565b600033905090565b611e118061024f6000396000f3fe608060405234801561001057600080fd5b50600436106100f55760003560e01c80636ad5b3ea11610097578063a8a15a2111610066578063a8a15a2114610286578063bf01e1cd146102b4578063dc03a992146102e2578063f2fde38b146102ec576100f5565b80636ad5b3ea146101e0578063715018a6146102145780638da5cb5b1461021e578063a0e88ccc14610252576100f5565b806345acd6b4116100d357806345acd6b4146101645780635d953fde1461016e57806367a9c3e5146101a2578063696ea033146101ac576100f5565b806307caf901146100fa57806307e9c020146101285780633ee16c6714610146575b600080fd5b6101266004803603602081101561011057600080fd5b8101908080359060200190929190505050610330565b005b61013061072d565b6040518082815260200191505060405180910390f35b61014e610737565b6040518082815260200191505060405180910390f35b61016c61073d565b005b610176610bf8565b604051808273ffffffffffffffffffffffffffffffffffffffff16815260200191505060405180910390f35b6101aa610c1e565b005b6101b46110d9565b604051808273ffffffffffffffffffffffffffffffffffffffff16815260200191505060405180910390f35b6101e86110ff565b604051808273ffffffffffffffffffffffffffffffffffffffff16815260200191505060405180910390f35b61021c611125565b005b6102266112ab565b604051808273ffffffffffffffffffffffffffffffffffffffff16815260200191505060405180910390f35b61025a6112d4565b604051808273ffffffffffffffffffffffffffffffffffffffff16815260200191505060405180910390f35b6102b26004803603602081101561029c57600080fd5b81019080803590602001909291905050506112fa565b005b6102e0600480360360208110156102ca57600080fd5b81019080803590602001909291905050506116f7565b005b6102ea6117a7565b005b61032e6004803603602081101561030257600080fd5b81019080803573ffffffffffffffffffffffffffffffffffffffff169060200190929190505050611a50565b005b3373ffffffffffffffffffffffffffffffffffffffff16600460009054906101000a900473ffffffffffffffffffffffffffffffffffffffff1673ffffffffffffffffffffffffffffffffffffffff16146103d6576040517f08c379a0000000000000000000000000000000000000000000000000000000008152600401808060200182810382526022815260200180611c646022913960400191505060405180910390fd5b60001515600660009054906101000a900460ff16151514610442576040517f08c379a0000000000000000000000000000000000000000000000000000000008152600401808060200182810382526032815260200180611d766032913960400191505060405180910390fd5b600060f81b60055460006020811061045657fe5b1a60f81b7effffffffffffffffffffffffffffffffffffffffffffffffffffffffffffff191614156104d3576040517f08c379a000000000000000000000000000000000000000000000000000000000815260040180806020018281038252602c815260200180611c86602c913960400191505060405180910390fd5b6000811161052c576040517f08c379a000000000000000000000000000000000000000000000000000000000815260040180806020018281038252602c815260200180611cb2602c913960400191505060405180910390fd5b600260009054906101000a900473ffffffffffffffffffffffffffffffffffffffff1673ffffffffffffffffffffffffffffffffffffffff166323b872dd3330846040518463ffffffff1660e01b8152600401808473ffffffffffffffffffffffffffffffffffffffff1681526020018373ffffffffffffffffffffffffffffffffffffffff1681526020018281526020019350505050602060405180830381600087803b1580156105dd57600080fd5b505af11580156105f1573d6000803e3d6000fd5b505050506040513d602081101561060757600080fd5b810190808051906020019092919050505050600260009054906101000a900473ffffffffffffffffffffffffffffffffffffffff1673ffffffffffffffffffffffffffffffffffffffff1663bcf64e05826005546040518363ffffffff1660e01b81526004018083815260200182815260200192505050600060405180830381600087803b15801561069857600080fd5b505af11580156106ac573d6000803e3d6000fd5b505050506001600660006101000a81548160ff0219169083151502179055507f321124c9bb3fcb84162e1eed8a7a9a9f7291cbef5d168c0ebb0579d57f9131c43382600554604051808473ffffffffffffffffffffffffffffffffffffffff168152602001838152602001828152602001935050505060405180910390a150565b6000600554905090565b60055481565b3373ffffffffffffffffffffffffffffffffffffffff16600460009054906101000a900473ffffffffffffffffffffffffffffffffffffffff1673ffffffffffffffffffffffffffffffffffffffff16146107e3576040517f08c379a0000000000000000000000000000000000000000000000000000000008152600401808060200182810382526022815260200180611c646022913960400191505060405180910390fd5b60011515600660009054906101000a900460ff1615151461084f576040517f08c379a0000000000000000000000000000000000000000000000000000000008152600401808060200182810382526034815260200180611da86034913960400191505060405180910390fd5b600060f81b60055460006020811061086357fe5b1a60f81b7effffffffffffffffffffffffffffffffffffffffffffffffffffffffffffff191614156108e0576040517f08c379a000000000000000000000000000000000000000000000000000000000815260040180806020018281038252602c815260200180611c86602c913960400191505060405180910390fd5b6000600160009054906101000a900473ffffffffffffffffffffffffffffffffffffffff1673ffffffffffffffffffffffffffffffffffffffff166370a08231306040518263ffffffff1660e01b8152600401808273ffffffffffffffffffffffffffffffffffffffff16815260200191505060206040518083038186803b15801561096b57600080fd5b505afa15801561097f573d6000803e3d6000fd5b505050506040513d602081101561099557600080fd5b8101908080519060200190929190505050116109fc576040517f08c379a000000000000000000000000000000000000000000000000000000000815260040180806020018281038252603a815260200180611d04603a913960400191505060405180910390fd5b600160009054906101000a900473ffffffffffffffffffffffffffffffffffffffff1673ffffffffffffffffffffffffffffffffffffffff1663a9059cbb33600160009054906101000a900473ffffffffffffffffffffffffffffffffffffffff1673ffffffffffffffffffffffffffffffffffffffff166370a08231306040518263ffffffff1660e01b8152600401808273ffffffffffffffffffffffffffffffffffffffff16815260200191505060206040518083038186803b158015610ac457600080fd5b505afa158015610ad8573d6000803e3d6000fd5b505050506040513d6020811015610aee57600080fd5b81019080805190602001909291905050506040518363ffffffff1660e01b8152600401808373ffffffffffffffffffffffffffffffffffffffff16815260200182815260200192505050602060405180830381600087803b158015610b5257600080fd5b505af1158015610b66573d6000803e3d6000fd5b505050506040513d6020811015610b7c57600080fd5b8101908080519060200190929190505050506000600660006101000a81548160ff0219169083151502179055507fa6ee2a42b8e91ddbebaa79e13cc6647ffe615b43b11b2a3101e33729b5143df833604051808273ffffffffffffffffffffffffffffffffffffffff16815260200191505060405180910390a1565b600260009054906101000a900473ffffffffffffffffffffffffffffffffffffffff1681565b3373ffffffffffffffffffffffffffffffffffffffff16600460009054906101000a900473ffffffffffffffffffffffffffffffffffffffff1673ffffffffffffffffffffffffffffffffffffffff1614610cc4576040517f08c379a0000000000000000000000000000000000000000000000000000000008152600401808060200182810382526022815260200180611c646022913960400191505060405180910390fd5b60011515600660009054906101000a900460ff16151514610d30576040517f08c379a0000000000000000000000000000000000000000000000000000000008152600401808060200182810382526034815260200180611da86034913960400191505060405180910390fd5b600060f81b600554600060208110610d4457fe5b1a60f81b7effffffffffffffffffffffffffffffffffffffffffffffffffffffffffffff19161415610dc1576040517f08c379a000000000000000000000000000000000000000000000000000000000815260040180806020018281038252602c815260200180611c86602c913960400191505060405180910390fd5b6000600260009054906101000a900473ffffffffffffffffffffffffffffffffffffffff1673ffffffffffffffffffffffffffffffffffffffff166370a08231306040518263ffffffff1660e01b8152600401808273ffffffffffffffffffffffffffffffffffffffff16815260200191505060206040518083038186803b158015610e4c57600080fd5b505afa158015610e60573d6000803e3d6000fd5b505050506040513d6020811015610e7657600080fd5b810190808051906020019092919050505011610edd576040517f08c379a0000000000000000000000000000000000000000000000000000000008152600401808060200182810382526038815260200180611d3e6038913960400191505060405180910390fd5b600260009054906101000a900473ffffffffffffffffffffffffffffffffffffffff1673ffffffffffffffffffffffffffffffffffffffff1663a9059cbb33600260009054906101000a900473ffffffffffffffffffffffffffffffffffffffff1673ffffffffffffffffffffffffffffffffffffffff166370a08231306040518263ffffffff1660e01b8152600401808273ffffffffffffffffffffffffffffffffffffffff16815260200191505060206040518083038186803b158015610fa557600080fd5b505afa158015610fb9573d6000803e3d6000fd5b505050506040513d6020811015610fcf57600080fd5b81019080805190602001909291905050506040518363ffffffff1660e01b8152600401808373ffffffffffffffffffffffffffffffffffffffff16815260200182815260200192505050602060405180830381600087803b15801561103357600080fd5b505af1158015611047573d6000803e3d6000fd5b505050506040513d602081101561105d57600080fd5b8101908080519060200190929190505050506000600660006101000a81548160ff0219169083151502179055507fb7c0b7b38c3b275792ec10721de917c23295e4182797644a61c51c4aca81f38133604051808273ffffffffffffffffffffffffffffffffffffffff16815260200191505060405180910390a1565b600160009054906101000a900473ffffffffffffffffffffffffffffffffffffffff1681565b600460009054906101000a900473ffffffffffffffffffffffffffffffffffffffff1681565b61112d611c5b565b73ffffffffffffffffffffffffffffffffffffffff1660008054906101000a900473ffffffffffffffffffffffffffffffffffffffff1673ffffffffffffffffffffffffffffffffffffffff16146111ed576040517f08c379a00000000000000000000000000000000000000000000000000000000081526004018080602001828103825260208152602001807f4f776e61626c653a2063616c6c6572206973206e6f7420746865206f776e657281525060200191505060405180910390fd5b600073ffffffffffffffffffffffffffffffffffffffff1660008054906101000a900473ffffffffffffffffffffffffffffffffffffffff1673ffffffffffffffffffffffffffffffffffffffff167f8be0079c531659141344cd1fd0a4f28419497f9722a3daafe3b4186f6b6457e060405160405180910390a360008060006101000a81548173ffffffffffffffffffffffffffffffffffffffff021916908373ffffffffffffffffffffffffffffffffffffffff160217905550565b60008060009054906101000a900473ffffffffffffffffffffffffffffffffffffffff16905090565b600360009054906101000a900473ffffffffffffffffffffffffffffffffffffffff1681565b3373ffffffffffffffffffffffffffffffffffffffff16600460009054906101000a900473ffffffffffffffffffffffffffffffffffffffff1673ffffffffffffffffffffffffffffffffffffffff16146113a0576040517f08c379a0000000000000000000000000000000000000000000000000000000008152600401808060200182810382526022815260200180611c646022913960400191505060405180910390fd5b60001515600660009054906101000a900460ff1615151461140c576040517f08c379a0000000000000000000000000000000000000000000000000000000008152600401808060200182810382526032815260200180611d766032913960400191505060405180910390fd5b600060f81b60055460006020811061142057fe5b1a60f81b7effffffffffffffffffffffffffffffffffffffffffffffffffffffffffffff1916141561149d576040517f08c379a000000000000000000000000000000000000000000000000000000000815260040180806020018281038252602c815260200180611c86602c913960400191505060405180910390fd5b600081116114f6576040517f08c379a000000000000000000000000000000000000000000000000000000000815260040180806020018281038252602c815260200180611cb2602c913960400191505060405180910390fd5b600160009054906101000a900473ffffffffffffffffffffffffffffffffffffffff1673ffffffffffffffffffffffffffffffffffffffff166323b872dd3330846040518463ffffffff1660e01b8152600401808473ffffffffffffffffffffffffffffffffffffffff1681526020018373ffffffffffffffffffffffffffffffffffffffff1681526020018281526020019350505050602060405180830381600087803b1580156115a757600080fd5b505af11580156115bb573d6000803e3d6000fd5b505050506040513d60208110156115d157600080fd5b810190808051906020019092919050505050600160009054906101000a900473ffffffffffffffffffffffffffffffffffffffff1673ffffffffffffffffffffffffffffffffffffffff1663bcf64e05826005546040518363ffffffff1660e01b81526004018083815260200182815260200192505050600060405180830381600087803b15801561166257600080fd5b505af1158015611676573d6000803e3d6000fd5b505050506001600660006101000a81548160ff0219169083151502179055507f49cbf3aa6e34b337c41b5c182834ce78101a9439c3effe7490f9ce43bebd5de33382600554604051808473ffffffffffffffffffffffffffffffffffffffff168152602001838152602001828152602001935050505060405180910390a150565b3373ffffffffffffffffffffffffffffffffffffffff16600460009054906101000a900473ffffffffffffffffffffffffffffffffffffffff1673ffffffffffffffffffffffffffffffffffffffff161461179d576040517f08c379a0000000000000000000000000000000000000000000000000000000008152600401808060200182810382526022815260200180611c646022913960400191505060405180910390fd5b8060058190555050565b6117af611c5b565b73ffffffffffffffffffffffffffffffffffffffff1660008054906101000a900473ffffffffffffffffffffffffffffffffffffffff1673ffffffffffffffffffffffffffffffffffffffff161461186f576040517f08c379a00000000000000000000000000000000000000000000000000000000081526004018080602001828103825260208152602001807f4f776e61626c653a2063616c6c6572206973206e6f7420746865206f776e657281525060200191505060405180910390fd5b60001515600660009054906101000a900460ff161515146118db576040517f08c379a0000000000000000000000000000000000000000000000000000000008152600401808060200182810382526032815260200180611d766032913960400191505060405180910390fd5b6000600160009054906101000a900473ffffffffffffffffffffffffffffffffffffffff1673ffffffffffffffffffffffffffffffffffffffff166370a08231306040518263ffffffff1660e01b8152600401808273ffffffffffffffffffffffffffffffffffffffff16815260200191505060206040518083038186803b15801561196657600080fd5b505afa15801561197a573d6000803e3d6000fd5b505050506040513d602081101561199057600080fd5b81019080805190602001909291905050501480156119c1575060011515600660009054906101000a900460ff161515145b611a33576040517f08c379a00000000000000000000000000000000000000000000000000000000081526004018080602001828103825260208152602001807f416e63686f724163636f756e743a2063616c6c2066696e69736820666972737481525060200191505060405180910390fd5b6000600660006101000a81548160ff021916908315150217905550565b611a58611c5b565b73ffffffffffffffffffffffffffffffffffffffff1660008054906101000a900473ffffffffffffffffffffffffffffffffffffffff1673ffffffffffffffffffffffffffffffffffffffff1614611b18576040517f08c379a00000000000000000000000000000000000000000000000000000000081526004018080602001828103825260208152602001807f4f776e61626c653a2063616c6c6572206973206e6f7420746865206f776e657281525060200191505060405180910390fd5b600073ffffffffffffffffffffffffffffffffffffffff168173ffffffffffffffffffffffffffffffffffffffff161415611b9e576040517f08c379a0000000000000000000000000000000000000000000000000000000008152600401808060200182810382526026815260200180611cde6026913960400191505060405180910390fd5b8073ffffffffffffffffffffffffffffffffffffffff1660008054906101000a900473ffffffffffffffffffffffffffffffffffffffff1673ffffffffffffffffffffffffffffffffffffffff167f8be0079c531659141344cd1fd0a4f28419497f9722a3daafe3b4186f6b6457e060405160405180910390a3806000806101000a81548173ffffffffffffffffffffffffffffffffffffffff021916908373ffffffffffffffffffffffffffffffffffffffff16021790555050565b60003390509056fe416e63686f724163636f756e743a20756e617574686f72697a65642073656e646572416e63686f724163636f756e743a2054657272612061646472657373206e6f7420696e697469616c697a6564416e63686f724163636f756e743a20616d6f756e74206d7573742062652067726561746572207468616e20304f776e61626c653a206e6577206f776e657220697320746865207a65726f2061646472657373416e63686f724163636f756e743a2066696e69736820726564656d7074696f6e206f7065726174696f6e3a206e6f7420656e6f75676820757374416e63686f724163636f756e743a2066696e697368206465706f736974206f7065726174696f6e3a206e6f7420656e6f7567682061757374416e63686f724163636f756e743a20696e6974206f7065726174696f6e3a20696e697420616c72656164792063616c6c6564416e63686f724163636f756e743a2066696e697368206f7065726174696f6e3a20696e6974206e6f742063616c6c656420796574a2646970667358221220b9d80ae57c341afe8c360ee73b0424df32a2ed2309a90f9909d5b47e64a94e7064736f6c634300070300334f776e61626c653a206e6577206f776e657220697320746865207a65726f2061646472657373416e63686f72457468466163746f72793a20636f6e747261637420616c7265616479206d69677261746564a2646970667358221220c3c3db600a23811451b5669466c5b7cc202596fc6306f226f1c239617628ca5364736f6c63430007030033",
  "immutableReferences": {},
  "source": "// SPDX-License-Identifier: UNLICENSED\n// AnchorEthFactory.sol: Factory contract for all account contracts\npragma solidity >=0.6.0 <0.8.0;\n\nimport '@openzeppelin/contracts/math/SafeMath.sol';\nimport '@openzeppelin/contracts/token/ERC20/IERC20.sol';\nimport '@openzeppelin/contracts/token/ERC20/SafeERC20.sol';\nimport '@openzeppelin/contracts/access/Ownable.sol';\nimport './interfaces/IShuttleAsset.sol';\nimport './interfaces/IAnchorAccount.sol';\n\ncontract AnchorEthFactory is Ownable {\n    using SafeMath for uint256;\n    using SafeERC20 for IERC20;\n\n    mapping(address => address) public ContractMap;\n\n    AnchorAccount[] private ContractsList;\n    IShuttleAsset public terrausd;\n    IShuttleAsset public anchorust;\n\n    bool public isMigrated = false;\n\n    constructor(address _terrausd, address _anchorust) {\n        terrausd = IShuttleAsset(_terrausd);\n        anchorust = IShuttleAsset(_anchorust);\n    }\n\n    // **MUST** be called after calling openzeppelin upgradable_contract_deploy_proxy\n    function migrate(address newContract) public onlyOwner {\n        require(isMigrated == false, \"AnchorEthFactory: contract already migrated\");\n        // migrate subcontract ownership to new contract\n        for (uint i = 0; i < ContractsList.length; i++) {\n            ContractsList[i].transferOwnership(newContract);\n        }\n        isMigrated = true;\n    }\n\n    // setters\n    function setUSTAddess(IShuttleAsset _terrausd) public onlyOwner {\n        terrausd = _terrausd;\n    }\n\n    function setaUSTAddress(IShuttleAsset _anchorust) public onlyOwner {\n        anchorust = _anchorust;\n    }\n\n    // getters\n    function getContractAddress(address _sender) public returns (address) {\n        return ContractMap[_sender];\n    }\n\n    function deployContract(address _walletAddress) onlyOwner public {\n        // create new contract\n        AnchorAccount accountContract = new AnchorAccount(address(this), _walletAddress, address(terrausd), address(anchorust));\n        // append to map\n        ContractMap[_walletAddress] = address(accountContract);\n        ContractsList.push(accountContract);\n        // emit contractdeployed event\n        emit ContractDeployed(address(accountContract), _walletAddress);\n    }\n\n    function reportFailure() public onlyOwner {\n        IAnchorAccount(ContractMap[msg.sender]).reportFailure();\n    }\n\n    // Events\n    event ContractDeployed(address account, address sender);\n}\n\n// AnchorAccount.sol: subcontract generated per wallet, defining all relevant wrapping functions\n\ncontract AnchorAccount is Ownable {\n    using SafeMath for uint256;\n    using SafeERC20 for IERC20;\n\n    IShuttleAsset public terrausd;\n    IShuttleAsset public anchorust;\n\n    address public anchorFactory;\n    address public walletAddress;\n    bytes32 public terraAddress;\n    bool private ActionFlag = false;\n\n    constructor(address _anchorFactory, address _walletAddress, address _terrausd, address _anchorust) {\n        anchorFactory = _anchorFactory;\n        walletAddress = _walletAddress;\n        terrausd = IShuttleAsset(_terrausd);\n        anchorust = IShuttleAsset(_anchorust);\n    }\n\n    modifier checkInit() {\n        require(ActionFlag == false, \"AnchorAccount: init operation: init already called\");\n        _;\n    }\n\n    modifier checkFinish() {\n        require(ActionFlag == true, \"AnchorAccount: finish operation: init not called yet\");\n        _;\n    }\n\n    modifier onlyAuthSender() {\n        require(walletAddress == msg.sender, \"AnchorAccount: unauthorized sender\");\n        _;\n    }\n\n    modifier terraAddressSet() {\n        require(terraAddress[0] != 0, \"AnchorAccount: Terra address not initialized\");\n        _;\n    }\n\n    function setTerraAddress(bytes32 _terraAddress) public onlyAuthSender {\n        terraAddress = _terraAddress;\n    }\n\n    function getTerraAddress() public returns (bytes32) {\n        return terraAddress;\n    }\n\n    function initDepositStable(uint256 amount) public onlyAuthSender checkInit terraAddressSet {    \n        require(amount > 0, \"AnchorAccount: amount must be greater than 0\");    \n        // transfer UST to contract address\n        terrausd.transferFrom(msg.sender, address(this), amount);\n\n        // transfer UST to Shuttle\n        terrausd.burn(amount, terraAddress);\n\n        // set ActionFlag to true\n        ActionFlag = true;\n\n        // emit initdeposit event\n        emit InitDeposit(msg.sender, amount, terraAddress);\n    }\n\n    function finishDepositStable() public onlyAuthSender checkFinish terraAddressSet {\n        // transfer aUST to msg.sender\n        // call will fail if aUST was not returned from Shuttle/Anchorbot/Terra contracts\n        require(anchorust.balanceOf(address(this)) > 0, \"AnchorAccount: finish deposit operation: not enough aust\");\n        anchorust.transfer(msg.sender, anchorust.balanceOf(address(this)));\n\n        // set ActionFlag to false\n        ActionFlag = false;\n\n        // emit finishdeposit event\n        emit FinishDeposit(msg.sender);\n    }\n\n    function initRedeemStable(uint256 amount) public onlyAuthSender checkInit terraAddressSet {\n        require(amount > 0, \"AnchorAccount: amount must be greater than 0\");\n        // transfer aUST to contract address\n        anchorust.transferFrom(msg.sender, address(this), amount);\n\n        // transfer aUST to Shuttle\n        anchorust.burn(amount, terraAddress);\n\n        // set ActionFlag to true\n        ActionFlag = true;\n\n        // emit initredemption event\n        emit InitRedemption(msg.sender, amount, terraAddress);\n    }\n\n    function finishRedeemStable() public onlyAuthSender checkFinish terraAddressSet {\n        // transfer UST to msg.sender\n        // call will fail if aUST was not returned from Shuttle/Anchorbot/Terra contracts\n        require(terrausd.balanceOf(address(this)) > 0, \"AnchorAccount: finish redemption operation: not enough ust\");\n        terrausd.transfer(msg.sender, terrausd.balanceOf(address(this)));\n        \n        // set ActionFlag to false\n        ActionFlag = false;\n\n        // emit finishredemption event\n        emit FinishRedemption(msg.sender);\n    }\n\n    function reportFailure() public onlyOwner checkInit {\n        // contract owner can force revert init() txs in case of aUST redemption failure\n        // resets ActionFlag and return deposited funds to msg.sender\n        require(terrausd.balanceOf(address(this)) == 0 && ActionFlag == true, \"AnchorAccount: call finish first\");\n        ActionFlag = false;\n    }\n\n    // Events\n    event InitDeposit(address sender, uint256 amount, bytes32 to);\n    event FinishDeposit(address sender);\n    event InitRedemption(address sender, uint256 amount, bytes32 to);\n    event FinishRedemption(address sender);\n}",
  "sourcePath": "/Users/shhong/Developer/anchor_eth/contracts/AnchorEthFactory.sol",
  "compiler": {
    "name": "solc",
    "version": "0.7.3+commit.9bfce1f6.Emscripten.clang"
  },
  "schemaVersion": "3.3.3",
  "updatedAt": "2021-01-12T10:13:57.048Z",
  "networkType": "ethereum",
  "devdoc": {
    "kind": "dev",
    "methods": {
      "owner()": {
        "details": "Returns the address of the current owner."
      },
      "renounceOwnership()": {
        "details": "Leaves the contract without owner. It will not be possible to call `onlyOwner` functions anymore. Can only be called by the current owner. NOTE: Renouncing ownership will leave the contract without an owner, thereby removing any functionality that is only available to the owner."
      },
      "transferOwnership(address)": {
        "details": "Transfers ownership of the contract to a new account (`newOwner`). Can only be called by the current owner."
      }
    },
    "version": 1
  },
  "userdoc": {
    "kind": "user",
    "methods": {},
    "version": 1
  }
}